{
  "contractName": "AccountRegistryLogic",
  "abi": [
    {
      "constant": true,
      "inputs": [],
      "name": "initializing",
      "outputs": [
        {
          "name": "",
          "type": "bool"
        }
      ],
      "payable": false,
      "stateMutability": "view",
      "type": "function"
    },
    {
      "constant": true,
      "inputs": [],
      "name": "initializer",
      "outputs": [
        {
          "name": "",
          "type": "address"
        }
      ],
      "payable": false,
      "stateMutability": "view",
      "type": "function"
    },
    {
      "constant": true,
      "inputs": [
        {
          "name": "",
          "type": "address"
        }
      ],
      "name": "linkIds",
      "outputs": [
        {
          "name": "",
          "type": "uint256"
        }
      ],
      "payable": false,
      "stateMutability": "view",
      "type": "function"
    },
    {
      "constant": false,
      "inputs": [],
      "name": "endInitialization",
      "outputs": [],
      "payable": false,
      "stateMutability": "nonpayable",
      "type": "function"
    },
    {
      "constant": true,
      "inputs": [
        {
          "name": "",
          "type": "bytes32"
        }
      ],
      "name": "usedSignatures",
      "outputs": [
        {
          "name": "",
          "type": "bool"
        }
      ],
      "payable": false,
      "stateMutability": "view",
      "type": "function"
    },
    {
      "inputs": [
        {
          "name": "_initializer",
          "type": "address"
        }
      ],
      "payable": false,
      "stateMutability": "nonpayable",
      "type": "constructor"
    },
    {
      "anonymous": false,
      "inputs": [
        {
          "indexed": true,
          "name": "currentAddress",
          "type": "address"
        },
        {
          "indexed": true,
          "name": "newAddress",
          "type": "address"
        },
        {
          "indexed": true,
          "name": "linkId",
          "type": "uint256"
        }
      ],
      "name": "AddressLinked",
      "type": "event"
    },
    {
      "anonymous": false,
      "inputs": [
        {
          "indexed": true,
          "name": "addressToRemove",
          "type": "address"
        }
      ],
      "name": "AddressUnlinked",
      "type": "event"
    },
    {
      "anonymous": false,
      "inputs": [],
      "name": "InitializationEnded",
      "type": "event"
    },
    {
      "constant": false,
      "inputs": [
        {
          "name": "_currentAddress",
          "type": "address"
        },
        {
          "name": "_currentAddressSig",
          "type": "bytes"
        },
        {
          "name": "_newAddress",
          "type": "address"
        },
        {
          "name": "_newAddressSig",
          "type": "bytes"
        },
        {
          "name": "_nonce",
          "type": "bytes32"
        }
      ],
      "name": "linkAddresses",
      "outputs": [],
      "payable": false,
      "stateMutability": "nonpayable",
      "type": "function"
    },
    {
      "constant": false,
      "inputs": [
        {
          "name": "_addressToRemove",
          "type": "address"
        },
        {
          "name": "_nonce",
          "type": "bytes32"
        },
        {
          "name": "_unlinkSignature",
          "type": "bytes"
        }
      ],
      "name": "unlinkAddress",
      "outputs": [],
      "payable": false,
      "stateMutability": "nonpayable",
      "type": "function"
    },
    {
      "constant": false,
      "inputs": [
        {
          "name": "_currentAddress",
          "type": "address"
        },
        {
          "name": "_newAddress",
          "type": "address"
        }
      ],
      "name": "migrateLink",
      "outputs": [],
      "payable": false,
      "stateMutability": "nonpayable",
      "type": "function"
    }
  ],
  "bytecode": "0x608060405234801561001057600080fd5b506040516020806115d28339810180604052602081101561003057600080fd5b81019080805190602001909291905050506040518060400160405280601681526020017f426c6f6f6d204163636f756e74205265676973747279000000000000000000008152506040518060400160405280600181526020017f3200000000000000000000000000000000000000000000000000000000000000815250600183806000806101000a81548173ffffffffffffffffffffffffffffffffffffffff021916908373ffffffffffffffffffffffffffffffffffffffff1602179055506001600060146101000a81548160ff0219169083151502179055505061015a60405180608001604052808581526020018481526020018381526020013073ffffffffffffffffffffffffffffffffffffffff16815250610169640100000000026401000000009004565b6002819055505050505061021b565b60006040518080611580605291396052019050604051809103902082600001518051906020012083602001518051906020012084604001518560600151604051602001808681526020018581526020018481526020018381526020018273ffffffffffffffffffffffffffffffffffffffff1673ffffffffffffffffffffffffffffffffffffffff16815260200195505050505050604051602081830303815290604052805190602001209050919050565b6113568061022a6000396000f3fe608060405234801561001057600080fd5b50600436106100a5576000357c0100000000000000000000000000000000000000000000000000000000900480639ce110d7116100785780639ce110d7146102eb578063a066447d14610335578063b397657d1461038d578063f978fd6114610397576100a5565b8063245547a1146100aa5780632599f159146101c25780637d88e1ea146101e4578063976bd65214610248575b600080fd5b6101c0600480360360a08110156100c057600080fd5b81019080803573ffffffffffffffffffffffffffffffffffffffff169060200190929190803590602001906401000000008111156100fd57600080fd5b82018360208201111561010f57600080fd5b8035906020019184600183028401116401000000008311171561013157600080fd5b9091929391929390803573ffffffffffffffffffffffffffffffffffffffff1690602001909291908035906020019064010000000081111561017257600080fd5b82018360208201111561018457600080fd5b803590602001918460018302840111640100000000831117156101a657600080fd5b9091929391929390803590602001909291905050506103dd565b005b6101ca61068a565b604051808215151515815260200191505060405180910390f35b610246600480360360408110156101fa57600080fd5b81019080803573ffffffffffffffffffffffffffffffffffffffff169060200190929190803573ffffffffffffffffffffffffffffffffffffffff16906020019092919050505061069d565b005b6102e96004803603606081101561025e57600080fd5b81019080803573ffffffffffffffffffffffffffffffffffffffff16906020019092919080359060200190929190803590602001906401000000008111156102a557600080fd5b8201836020820111156102b757600080fd5b803590602001918460018302840111640100000000831117156102d957600080fd5b90919293919293905050506109af565b005b6102f3610a8c565b604051808273ffffffffffffffffffffffffffffffffffffffff1673ffffffffffffffffffffffffffffffffffffffff16815260200191505060405180910390f35b6103776004803603602081101561034b57600080fd5b81019080803573ffffffffffffffffffffffffffffffffffffffff169060200190929190505050610ab1565b6040518082815260200191505060405180910390f35b610395610ac9565b005b6103c3600480360360208110156103ad57600080fd5b8101908080359060200190929190505050610c1b565b604051808215151515815260200191505060405180910390f35b6000600460008673ffffffffffffffffffffffffffffffffffffffff1673ffffffffffffffffffffffffffffffffffffffff168152602001908152602001600020541461042957600080fd5b61047987858389898080601f016020809104026020016040519081016040528093929190818152602001838380828437600081840152601f19601f82011690508083019250505050505050610c3b565b6104c984888386868080601f016020809104026020016040519081016040528093929190818152602001838380828437600081840152601f19601f82011690508083019250505050505050610c3b565b6000600460008973ffffffffffffffffffffffffffffffffffffffff1673ffffffffffffffffffffffffffffffffffffffff16815260200190815260200160002054141561056457600360008154600101919050819055600460008973ffffffffffffffffffffffffffffffffffffffff1673ffffffffffffffffffffffffffffffffffffffff168152602001908152602001600020819055505b600460008873ffffffffffffffffffffffffffffffffffffffff1673ffffffffffffffffffffffffffffffffffffffff16815260200190815260200160002054600460008673ffffffffffffffffffffffffffffffffffffffff1673ffffffffffffffffffffffffffffffffffffffff16815260200190815260200160002081905550600460008873ffffffffffffffffffffffffffffffffffffffff1673ffffffffffffffffffffffffffffffffffffffff168152602001908152602001600020548473ffffffffffffffffffffffffffffffffffffffff168873ffffffffffffffffffffffffffffffffffffffff167ff10c503146261f617db6e85ab6fe93a4657ce2ac77a5a432bc0b4b8b80c5c78f60405160405180910390a450505050505050565b600060149054906101000a900460ff1681565b6000809054906101000a900473ffffffffffffffffffffffffffffffffffffffff1673ffffffffffffffffffffffffffffffffffffffff163373ffffffffffffffffffffffffffffffffffffffff1614610742576040517f08c379a000000000000000000000000000000000000000000000000000000000815260040180806020018281038252602881526020018061127f6028913960400191505060405180910390fd5b600060149054906101000a900460ff166107a7576040517f08c379a000000000000000000000000000000000000000000000000000000000815260040180806020018281038252602f8152602001806112fc602f913960400191505060405180910390fd5b6000600460008373ffffffffffffffffffffffffffffffffffffffff1673ffffffffffffffffffffffffffffffffffffffff16815260200190815260200160002054146107f357600080fd5b6000600460008473ffffffffffffffffffffffffffffffffffffffff1673ffffffffffffffffffffffffffffffffffffffff16815260200190815260200160002054141561088e57600360008154600101919050819055600460008473ffffffffffffffffffffffffffffffffffffffff1673ffffffffffffffffffffffffffffffffffffffff168152602001908152602001600020819055505b600460008373ffffffffffffffffffffffffffffffffffffffff1673ffffffffffffffffffffffffffffffffffffffff16815260200190815260200160002054600460008373ffffffffffffffffffffffffffffffffffffffff1673ffffffffffffffffffffffffffffffffffffffff16815260200190815260200160002081905550600460008373ffffffffffffffffffffffffffffffffffffffff1673ffffffffffffffffffffffffffffffffffffffff168152602001908152602001600020548173ffffffffffffffffffffffffffffffffffffffff168373ffffffffffffffffffffffffffffffffffffffff167ff10c503146261f617db6e85ab6fe93a4657ce2ac77a5a432bc0b4b8b80c5c78f60405160405180910390a45050565b6109fe848484848080601f016020809104026020016040519081016040528093929190818152602001838380828437600081840152601f19601f82011690508083019250505050505050610c9b565b6000600460008673ffffffffffffffffffffffffffffffffffffffff1673ffffffffffffffffffffffffffffffffffffffff168152602001908152602001600020819055508373ffffffffffffffffffffffffffffffffffffffff167f733f0753b35f5be0d1058a16fb5ce6ad687597f3003317a1724334dce894968460405160405180910390a250505050565b6000809054906101000a900473ffffffffffffffffffffffffffffffffffffffff1681565b60046020528060005260406000206000915090505481565b6000809054906101000a900473ffffffffffffffffffffffffffffffffffffffff1673ffffffffffffffffffffffffffffffffffffffff163373ffffffffffffffffffffffffffffffffffffffff1614610b6e576040517f08c379a000000000000000000000000000000000000000000000000000000000815260040180806020018281038252602881526020018061127f6028913960400191505060405180910390fd5b600060149054906101000a900460ff16610bd3576040517f08c379a000000000000000000000000000000000000000000000000000000000815260040180806020018281038252602f8152602001806112fc602f913960400191505060405180910390fd5b60008060146101000a81548160ff0219169083151502179055507f0cabb9c05f9eeeadb6765f175642f19876b512ba15100b1391420b714b0c3d0060405160405180910390a1565b60016020528060005260406000206000915054906101000a900460ff1681565b6000610c478484610d93565b9050610c538183610e28565b73ffffffffffffffffffffffffffffffffffffffff168573ffffffffffffffffffffffffffffffffffffffff1614610c8a57600080fd5b610c948186610e7b565b5050505050565b6000600460008573ffffffffffffffffffffffffffffffffffffffff1673ffffffffffffffffffffffffffffffffffffffff168152602001908152602001600020541415610d34576040517f08c379a00000000000000000000000000000000000000000000000000000000081526004018080602001828103825260218152602001806112a76021913960400191505060405180910390fd5b6000610d408484610f9e565b9050610d4c8183610e28565b73ffffffffffffffffffffffffffffffffffffffff168473ffffffffffffffffffffffffffffffffffffffff1614610d8357600080fd5b610d8d8185610e7b565b50505050565b6000600254610dcb60405180604001604052808673ffffffffffffffffffffffffffffffffffffffff16815260200185815250611033565b60405160200180807f19010000000000000000000000000000000000000000000000000000000000008152506002018381526020018281526020019250505060405160208183030381529060405280519060200120905092915050565b600080610e3584846110bf565b9050600073ffffffffffffffffffffffffffffffffffffffff168173ffffffffffffffffffffffffffffffffffffffff161415610e7157600080fd5b8091505092915050565b60008282604051602001808381526020018273ffffffffffffffffffffffffffffffffffffffff1673ffffffffffffffffffffffffffffffffffffffff168152602001925050506040516020818303038152906040528051906020012090506001600082815260200190815260200160002060009054906101000a900460ff1615610f6e576040517f08c379a00000000000000000000000000000000000000000000000000000000081526004018080602001828103825260148152602001807f5369676e6174757265206e6f7420756e6971756500000000000000000000000081525060200191505060405180910390fd5b600180600083815260200190815260200160002060006101000a81548160ff021916908315150217905550505050565b6000600254610fd660405180604001604052808673ffffffffffffffffffffffffffffffffffffffff168152602001858152506111c4565b60405160200180807f19010000000000000000000000000000000000000000000000000000000000008152506002018381526020018281526020019250505060405160208183030381529060405280519060200120905092915050565b60006040518080611251602e9139602e019050604051809103902082600001518360200151604051602001808481526020018373ffffffffffffffffffffffffffffffffffffffff1673ffffffffffffffffffffffffffffffffffffffff1681526020018281526020019350505050604051602081830303815290604052805190602001209050919050565b600060418251146110d357600090506111be565b60008060006020850151925060408501519150606085015160001a90507f7fffffffffffffffffffffffffffffff5d576e7357a4501ddfe92f46681b20a08260019004111561112857600093505050506111be565b601b8160ff16141580156111405750601c8160ff1614155b1561115157600093505050506111be565b60018682858560405160008152602001604052604051808581526020018460ff1660ff1681526020018381526020018281526020019450505050506020604051602081039080840390855afa1580156111ae573d6000803e3d6000fd5b5050506020604051035193505050505b92915050565b600060405180806112c8603491396034019050604051809103902082600001518360200151604051602001808481526020018373ffffffffffffffffffffffffffffffffffffffff1673ffffffffffffffffffffffffffffffffffffffff168152602001828152602001935050505060405160208183030381529060405280519060200120905091905056fe4164644164647265737328616464726573732061646472657373546f4164642c62797465733332206e6f6e6365294d6574686f642063616e206f6e6c792062652063616c6c656420627920696e697469616c697a65724164647265737320646f6573206e6f74206861766520616374697665206c696e6b52656d6f76654164647265737328616464726573732061646472657373546f52656d6f76652c62797465733332206e6f6e6365294d6574686f642063616e206f6e6c792062652063616c6c656420647572696e6720696e697469616c697a6174696f6ea165627a7a72305820ba86bcf646872e82a83b0d94b010e82a84f8a30bcb4ff43814bf0e7024dec1a30029454950373132446f6d61696e28737472696e67206e616d652c737472696e672076657273696f6e2c75696e7432353620636861696e49642c6164647265737320766572696679696e67436f6e747261637429",
  "source": "pragma solidity 0.5.7;\n\nimport \"./SigningLogic.sol\";\nimport \"./Initializable.sol\";\n\n/**\n * @title Bloom account registry\n * @notice Account Registry Logic allows users to link multiple addresses to the same owner\n *\n */\ncontract AccountRegistryLogic is Initializable, SigningLogic {\n  /**\n   * @notice The AccountRegistry constructor configures the signing logic implementation\n   */\n  constructor(\n    address _initializer\n  ) public Initializable(_initializer) SigningLogic(\"Bloom Account Registry\", \"2\", 1) {}\n\n  event AddressLinked(address indexed currentAddress, address indexed newAddress, uint256 indexed linkId);\n  event AddressUnlinked(address indexed addressToRemove);\n\n  // Counter to generate unique link Ids\n  uint256 linkCounter;\n  mapping(address => uint256) public linkIds;\n\n  /**\n   * @notice Add an address to an existing id on behalf of a user to pay the gas costs\n   * @param _currentAddress Address to which user wants to link another address. May currently be linked to another address\n   * @param _currentAddressSig Signed message from address currently associated with account confirming intention\n   * @param _newAddress Address to add to account. Cannot currently be linked to another address\n   * @param _newAddressSig Signed message from new address confirming ownership by the sender\n   * @param _nonce hex string used when generating sigs to make them one time use\n   */\n  function linkAddresses(\n    address _currentAddress,\n    bytes calldata _currentAddressSig,\n    address _newAddress,\n    bytes calldata _newAddressSig,\n    bytes32 _nonce\n    ) external {\n      // Confirm newAddress is not linked to another account\n      require(linkIds[_newAddress] == 0);\n      // Confirm new address is signed by current address and is unused\n      validateLinkSignature(_currentAddress, _newAddress, _nonce, _currentAddressSig);\n\n      // Confirm current address is signed by new address and is unused\n      validateLinkSignature(_newAddress, _currentAddress, _nonce, _newAddressSig);\n\n      // Get linkId of current address if exists. Otherwise use incremented linkCounter\n      if (linkIds[_currentAddress] == 0) {\n        linkIds[_currentAddress] = ++linkCounter;\n      }\n      linkIds[_newAddress] = linkIds[_currentAddress];\n\n      emit AddressLinked(_currentAddress, _newAddress, linkIds[_currentAddress]);\n  }\n\n  /**\n   * @notice Remove an address from a link relationship\n   * @param _addressToRemove Address to unlink from all other addresses\n   * @param _unlinkSignature Signed message from address currently associated with account confirming intention to unlink\n   * @param _nonce hex string used when generating sigs to make them one time use\n   */\n  function unlinkAddress(\n    address _addressToRemove,\n    bytes32 _nonce,\n    bytes calldata _unlinkSignature\n  ) external {\n    // Confirm unlink request is signed by sender and is unused\n    validateUnlinkSignature(_addressToRemove, _nonce, _unlinkSignature);\n    linkIds[_addressToRemove] = 0;\n\n    emit AddressUnlinked(_addressToRemove);\n  }\n\n  /**\n   * @notice Verify link signature is valid and unused V\n   * @param _currentAddress Address signing intention to link\n   * @param _addressToAdd Address being linked\n   * @param _nonce Unique nonce for this request\n   * @param _linkSignature Signature of address a\n   */\n  function validateLinkSignature(\n    address _currentAddress,\n    address _addressToAdd,\n    bytes32 _nonce,\n    bytes memory _linkSignature\n  ) private {\n    bytes32 _signatureDigest = generateAddAddressSchemaHash(_addressToAdd, _nonce);\n    require(_currentAddress == recoverSigner(_signatureDigest, _linkSignature));\n    burnSignatureDigest(_signatureDigest, _currentAddress);\n  }\n\n  /**\n   * @notice Verify unlink signature is valid and unused \n   * @param _addressToRemove Address being unlinked\n   * @param _nonce Unique nonce for this request\n   * @param _unlinkSignature Signature of senderAddress\n   */\n  function validateUnlinkSignature(\n    address _addressToRemove,\n    bytes32 _nonce,\n    bytes memory _unlinkSignature\n  ) private {\n\n    // require that address to remove is currently linked to senderAddress\n    require(linkIds[_addressToRemove] != 0, \"Address does not have active link\");\n\n    bytes32 _signatureDigest = generateRemoveAddressSchemaHash(_addressToRemove, _nonce);\n\n    require(_addressToRemove == recoverSigner(_signatureDigest, _unlinkSignature));\n    burnSignatureDigest(_signatureDigest, _addressToRemove);\n  }\n\n  /**\n   * @notice Submit link completed prior to deployment of this contract\n   * @dev Gives initializer privileges to write links during the initialization period without signatures\n   * @param _currentAddress Address to which user wants to link another address. May currently be linked to another address\n   * @param _newAddress Address to add to account. Cannot currently be linked to another address\n   */\n  function migrateLink(\n    address _currentAddress,\n    address _newAddress\n  ) external onlyDuringInitialization {\n    // Confirm newAddress is not linked to another account\n    require(linkIds[_newAddress] == 0);\n\n    // Get linkId of current address if exists. Otherwise use incremented linkCounter\n    if (linkIds[_currentAddress] == 0) {\n      linkIds[_currentAddress] = ++linkCounter;\n    }\n    linkIds[_newAddress] = linkIds[_currentAddress];\n\n    emit AddressLinked(_currentAddress, _newAddress, linkIds[_currentAddress]);\n  }\n\n}\n",
  "sourcePath": "/Users/pierrick/Documents/04-OSS/08-Graph/01-Bloom/core/contracts/AccountRegistryLogic.sol",
  "compiler": {
    "name": "solc",
    "version": "0.5.7+commit.6da8b019.Emscripten.clang"
  },
  "schemaVersion": "3.0.9",
  "updatedAt": "2019-05-08T16:33:33.997Z",
  "devdoc": {
    "methods": {
      "endInitialization()": {
        "details": "Allows the initializer to end the initialization period"
      },
      "linkAddresses(address,bytes,address,bytes,bytes32)": {
        "params": {
          "_currentAddress": "Address to which user wants to link another address. May currently be linked to another address",
          "_currentAddressSig": "Signed message from address currently associated with account confirming intention",
          "_newAddress": "Address to add to account. Cannot currently be linked to another address",
          "_newAddressSig": "Signed message from new address confirming ownership by the sender",
          "_nonce": "hex string used when generating sigs to make them one time use"
        }
      },
      "migrateLink(address,address)": {
        "details": "Gives initializer privileges to write links during the initialization period without signatures",
        "params": {
          "_currentAddress": "Address to which user wants to link another address. May currently be linked to another address",
          "_newAddress": "Address to add to account. Cannot currently be linked to another address"
        }
      },
      "unlinkAddress(address,bytes32,bytes)": {
        "params": {
          "_addressToRemove": "Address to unlink from all other addresses",
          "_nonce": "hex string used when generating sigs to make them one time use",
          "_unlinkSignature": "Signed message from address currently associated with account confirming intention to unlink"
        }
      }
    },
    "title": "Bloom account registry"
  },
  "userdoc": {
    "methods": {
      "constructor": "The AccountRegistry constructor configures the signing logic implementation",
      "linkAddresses(address,bytes,address,bytes,bytes32)": {
        "notice": "Add an address to an existing id on behalf of a user to pay the gas costs"
      },
      "migrateLink(address,address)": {
        "notice": "Submit link completed prior to deployment of this contract"
      },
      "unlinkAddress(address,bytes32,bytes)": {
        "notice": "Remove an address from a link relationship"
      }
    },
    "notice": "Account Registry Logic allows users to link multiple addresses to the same owner "
  }
}