{
  "contractName": "AttestationLogic",
  "abi": [
    {
      "constant": true,
      "inputs": [],
      "name": "initializing",
      "outputs": [
        {
          "name": "",
          "type": "bool"
        }
      ],
      "payable": false,
      "stateMutability": "view",
      "type": "function"
    },
    {
      "constant": true,
      "inputs": [],
      "name": "tokenEscrowMarketplace",
      "outputs": [
        {
          "name": "",
          "type": "address"
        }
      ],
      "payable": false,
      "stateMutability": "view",
      "type": "function"
    },
    {
      "constant": true,
      "inputs": [],
      "name": "initializer",
      "outputs": [
        {
          "name": "",
          "type": "address"
        }
      ],
      "payable": false,
      "stateMutability": "view",
      "type": "function"
    },
    {
      "constant": false,
      "inputs": [],
      "name": "endInitialization",
      "outputs": [],
      "payable": false,
      "stateMutability": "nonpayable",
      "type": "function"
    },
    {
      "constant": true,
      "inputs": [
        {
          "name": "",
          "type": "bytes32"
        }
      ],
      "name": "usedSignatures",
      "outputs": [
        {
          "name": "",
          "type": "bool"
        }
      ],
      "payable": false,
      "stateMutability": "view",
      "type": "function"
    },
    {
      "inputs": [
        {
          "name": "_initializer",
          "type": "address"
        },
        {
          "name": "_tokenEscrowMarketplace",
          "type": "address"
        }
      ],
      "payable": false,
      "stateMutability": "nonpayable",
      "type": "constructor"
    },
    {
      "anonymous": false,
      "inputs": [
        {
          "indexed": false,
          "name": "subject",
          "type": "address"
        },
        {
          "indexed": false,
          "name": "attester",
          "type": "address"
        },
        {
          "indexed": false,
          "name": "requester",
          "type": "address"
        },
        {
          "indexed": false,
          "name": "dataHash",
          "type": "bytes32"
        }
      ],
      "name": "TraitAttested",
      "type": "event"
    },
    {
      "anonymous": false,
      "inputs": [
        {
          "indexed": true,
          "name": "attester",
          "type": "address"
        },
        {
          "indexed": true,
          "name": "requester",
          "type": "address"
        }
      ],
      "name": "AttestationRejected",
      "type": "event"
    },
    {
      "anonymous": false,
      "inputs": [
        {
          "indexed": false,
          "name": "link",
          "type": "bytes32"
        },
        {
          "indexed": false,
          "name": "attester",
          "type": "address"
        }
      ],
      "name": "AttestationRevoked",
      "type": "event"
    },
    {
      "anonymous": false,
      "inputs": [
        {
          "indexed": false,
          "name": "oldTokenEscrowMarketplace",
          "type": "address"
        },
        {
          "indexed": false,
          "name": "newTokenEscrowMarketplace",
          "type": "address"
        }
      ],
      "name": "TokenEscrowMarketplaceChanged",
      "type": "event"
    },
    {
      "anonymous": false,
      "inputs": [],
      "name": "InitializationEnded",
      "type": "event"
    },
    {
      "constant": false,
      "inputs": [
        {
          "name": "_subject",
          "type": "address"
        },
        {
          "name": "_requester",
          "type": "address"
        },
        {
          "name": "_reward",
          "type": "uint256"
        },
        {
          "name": "_requesterSig",
          "type": "bytes"
        },
        {
          "name": "_dataHash",
          "type": "bytes32"
        },
        {
          "name": "_requestNonce",
          "type": "bytes32"
        },
        {
          "name": "_subjectSig",
          "type": "bytes"
        }
      ],
      "name": "attest",
      "outputs": [],
      "payable": false,
      "stateMutability": "nonpayable",
      "type": "function"
    },
    {
      "constant": false,
      "inputs": [
        {
          "name": "_subject",
          "type": "address"
        },
        {
          "name": "_attester",
          "type": "address"
        },
        {
          "name": "_requester",
          "type": "address"
        },
        {
          "name": "_reward",
          "type": "uint256"
        },
        {
          "name": "_requesterSig",
          "type": "bytes"
        },
        {
          "name": "_dataHash",
          "type": "bytes32"
        },
        {
          "name": "_requestNonce",
          "type": "bytes32"
        },
        {
          "name": "_subjectSig",
          "type": "bytes"
        },
        {
          "name": "_delegationSig",
          "type": "bytes"
        }
      ],
      "name": "attestFor",
      "outputs": [],
      "payable": false,
      "stateMutability": "nonpayable",
      "type": "function"
    },
    {
      "constant": false,
      "inputs": [
        {
          "name": "_requester",
          "type": "address"
        },
        {
          "name": "_reward",
          "type": "uint256"
        },
        {
          "name": "_requestNonce",
          "type": "bytes32"
        },
        {
          "name": "_requesterSig",
          "type": "bytes"
        }
      ],
      "name": "contest",
      "outputs": [],
      "payable": false,
      "stateMutability": "nonpayable",
      "type": "function"
    },
    {
      "constant": false,
      "inputs": [
        {
          "name": "_attester",
          "type": "address"
        },
        {
          "name": "_requester",
          "type": "address"
        },
        {
          "name": "_reward",
          "type": "uint256"
        },
        {
          "name": "_requestNonce",
          "type": "bytes32"
        },
        {
          "name": "_requesterSig",
          "type": "bytes"
        },
        {
          "name": "_delegationSig",
          "type": "bytes"
        }
      ],
      "name": "contestFor",
      "outputs": [],
      "payable": false,
      "stateMutability": "nonpayable",
      "type": "function"
    },
    {
      "constant": false,
      "inputs": [
        {
          "name": "_requester",
          "type": "address"
        },
        {
          "name": "_attester",
          "type": "address"
        },
        {
          "name": "_subject",
          "type": "address"
        },
        {
          "name": "_dataHash",
          "type": "bytes32"
        }
      ],
      "name": "migrateAttestation",
      "outputs": [],
      "payable": false,
      "stateMutability": "nonpayable",
      "type": "function"
    },
    {
      "constant": false,
      "inputs": [
        {
          "name": "_link",
          "type": "bytes32"
        }
      ],
      "name": "revokeAttestation",
      "outputs": [],
      "payable": false,
      "stateMutability": "nonpayable",
      "type": "function"
    },
    {
      "constant": false,
      "inputs": [
        {
          "name": "_sender",
          "type": "address"
        },
        {
          "name": "_link",
          "type": "bytes32"
        },
        {
          "name": "_nonce",
          "type": "bytes32"
        },
        {
          "name": "_delegationSig",
          "type": "bytes"
        }
      ],
      "name": "revokeAttestationFor",
      "outputs": [],
      "payable": false,
      "stateMutability": "nonpayable",
      "type": "function"
    },
    {
      "constant": false,
      "inputs": [
        {
          "name": "_newTokenEscrowMarketplace",
          "type": "address"
        }
      ],
      "name": "setTokenEscrowMarketplace",
      "outputs": [],
      "payable": false,
      "stateMutability": "nonpayable",
      "type": "function"
    }
  ],
  "bytecode": "0x608060405234801561001057600080fd5b50604051604080620024288339810180604052604081101561003157600080fd5b8101908080519060200190929190805190602001909291905050506040518060400160405280601781526020017f426c6f6f6d204174746573746174696f6e204c6f6769630000000000000000008152506040518060400160405280600181526020017f3200000000000000000000000000000000000000000000000000000000000000815250600184806000806101000a81548173ffffffffffffffffffffffffffffffffffffffff021916908373ffffffffffffffffffffffffffffffffffffffff1602179055506001600060146101000a81548160ff0219169083151502179055505061016560405180608001604052808581526020018481526020018381526020013073ffffffffffffffffffffffffffffffffffffffff168152506101b6640100000000026401000000009004565b60028190555050505080600360006101000a81548173ffffffffffffffffffffffffffffffffffffffff021916908373ffffffffffffffffffffffffffffffffffffffff1602179055505050610269565b60006040518080620023d6605291396052019050604051809103902082600001518051906020012083602001518051906020012084604001518560600151604051602001808681526020018581526020018481526020018381526020018273ffffffffffffffffffffffffffffffffffffffff1673ffffffffffffffffffffffffffffffffffffffff16815260200195505050505050604051602081830303815290604052805190602001209050919050565b61215d80620002796000396000f3fe608060405234801561001057600080fd5b50600436106100ec576000357c0100000000000000000000000000000000000000000000000000000000900480634e46f6e3116100a95780639f744745116100835780639f744745146105a2578063b397657d14610744578063d0bad1d61461074e578063f978fd61146107fb576100ec565b80634e46f6e3146104805780639a43a314146104ca5780639ce110d714610558576100ec565b80630ca7a56a146100f15780632599f159146102135780632a5502ad146102355780633c736778146103615780634ae122bb146103a55780634d5e1da614610452575b600080fd5b610211600480360360c081101561010757600080fd5b81019080803573ffffffffffffffffffffffffffffffffffffffff169060200190929190803573ffffffffffffffffffffffffffffffffffffffff16906020019092919080359060200190929190803590602001909291908035906020019064010000000081111561017857600080fd5b82018360208201111561018a57600080fd5b803590602001918460018302840111640100000000831117156101ac57600080fd5b9091929391929390803590602001906401000000008111156101cd57600080fd5b8201836020820111156101df57600080fd5b8035906020019184600183028401116401000000008311171561020157600080fd5b9091929391929390505050610841565b005b61021b6108ed565b604051808215151515815260200191505060405180910390f35b61035f600480360360e081101561024b57600080fd5b81019080803573ffffffffffffffffffffffffffffffffffffffff169060200190929190803573ffffffffffffffffffffffffffffffffffffffff16906020019092919080359060200190929190803590602001906401000000008111156102b257600080fd5b8201836020820111156102c457600080fd5b803590602001918460018302840111640100000000831117156102e657600080fd5b909192939192939080359060200190929190803590602001909291908035906020019064010000000081111561031b57600080fd5b82018360208201111561032d57600080fd5b8035906020019184600183028401116401000000008311171561034f57600080fd5b9091929391929390505050610900565b005b6103a36004803603602081101561037757600080fd5b81019080803573ffffffffffffffffffffffffffffffffffffffff1690602001909291905050506109a3565b005b610450600480360360808110156103bb57600080fd5b81019080803573ffffffffffffffffffffffffffffffffffffffff16906020019092919080359060200190929190803590602001909291908035906020019064010000000081111561040c57600080fd5b82018360208201111561041e57600080fd5b8035906020019184600183028401116401000000008311171561044057600080fd5b9091929391929390505050610bd2565b005b61047e6004803603602081101561046857600080fd5b8101908080359060200190929190505050610c2a565b005b610488610c37565b604051808273ffffffffffffffffffffffffffffffffffffffff1673ffffffffffffffffffffffffffffffffffffffff16815260200191505060405180910390f35b610556600480360360808110156104e057600080fd5b81019080803573ffffffffffffffffffffffffffffffffffffffff169060200190929190803573ffffffffffffffffffffffffffffffffffffffff169060200190929190803573ffffffffffffffffffffffffffffffffffffffff16906020019092919080359060200190929190505050610c5d565b005b610560610e40565b604051808273ffffffffffffffffffffffffffffffffffffffff1673ffffffffffffffffffffffffffffffffffffffff16815260200191505060405180910390f35b61074260048036036101208110156105b957600080fd5b81019080803573ffffffffffffffffffffffffffffffffffffffff169060200190929190803573ffffffffffffffffffffffffffffffffffffffff169060200190929190803573ffffffffffffffffffffffffffffffffffffffff169060200190929190803590602001909291908035906020019064010000000081111561064057600080fd5b82018360208201111561065257600080fd5b8035906020019184600183028401116401000000008311171561067457600080fd5b90919293919293908035906020019092919080359060200190929190803590602001906401000000008111156106a957600080fd5b8201836020820111156106bb57600080fd5b803590602001918460018302840111640100000000831117156106dd57600080fd5b9091929391929390803590602001906401000000008111156106fe57600080fd5b82018360208201111561071057600080fd5b8035906020019184600183028401116401000000008311171561073257600080fd5b9091929391929390505050610e65565b005b61074c610f5e565b005b6107f96004803603608081101561076457600080fd5b81019080803573ffffffffffffffffffffffffffffffffffffffff1690602001909291908035906020019092919080359060200190929190803590602001906401000000008111156107b557600080fd5b8201836020820111156107c757600080fd5b803590602001918460018302840111640100000000831117156107e957600080fd5b90919293919293905050506110b0565b005b6108276004803603602081101561081157600080fd5b8101908080359060200190929190505050611111565b604051808215151515815260200191505060405180910390f35b6108928888888886868080601f016020809104026020016040519081016040528093929190818152602001838380828437600081840152601f19601f82011690508083019250505050505050611131565b6108e38888888888888080601f016020809104026020016040519081016040528093929190818152602001838380828437600081840152601f19601f820116905080830192505050505050506111fc565b5050505050505050565b600060149054906101000a900460ff1681565b61099889338a8a8a8a8080601f016020809104026020016040519081016040528093929190818152602001838380828437600081840152601f19601f82011690508083019250505050505050898989898080601f016020809104026020016040519081016040528093929190818152602001838380828437600081840152601f19601f820116905080830192505050505050506113ed565b505050505050505050565b6000809054906101000a900473ffffffffffffffffffffffffffffffffffffffff1673ffffffffffffffffffffffffffffffffffffffff163373ffffffffffffffffffffffffffffffffffffffff1614610a48576040517f08c379a000000000000000000000000000000000000000000000000000000000815260040180806020018281038252602881526020018061207a6028913960400191505060405180910390fd5b600060149054906101000a900460ff16610aad576040517f08c379a000000000000000000000000000000000000000000000000000000000815260040180806020018281038252602f815260200180612103602f913960400191505060405180910390fd5b6000600360009054906101000a900473ffffffffffffffffffffffffffffffffffffffff16905081600360006101000a81548173ffffffffffffffffffffffffffffffffffffffff021916908373ffffffffffffffffffffffffffffffffffffffff1602179055507fff80ee77c85d9a66d44e11d38886b3f07748e818eaeb0660b75706962d0f56d581600360009054906101000a900473ffffffffffffffffffffffffffffffffffffffff16604051808373ffffffffffffffffffffffffffffffffffffffff1673ffffffffffffffffffffffffffffffffffffffff1681526020018273ffffffffffffffffffffffffffffffffffffffff1673ffffffffffffffffffffffffffffffffffffffff1681526020019250505060405180910390a15050565b610c233386868686868080601f016020809104026020016040519081016040528093929190818152602001838380828437600081840152601f19601f820116905080830192505050505050506111fc565b5050505050565b610c348133611666565b50565b600360009054906101000a900473ffffffffffffffffffffffffffffffffffffffff1681565b6000809054906101000a900473ffffffffffffffffffffffffffffffffffffffff1673ffffffffffffffffffffffffffffffffffffffff163373ffffffffffffffffffffffffffffffffffffffff1614610d02576040517f08c379a000000000000000000000000000000000000000000000000000000000815260040180806020018281038252602881526020018061207a6028913960400191505060405180910390fd5b600060149054906101000a900460ff16610d67576040517f08c379a000000000000000000000000000000000000000000000000000000000815260040180806020018281038252602f815260200180612103602f913960400191505060405180910390fd5b7f53931139c48182587fa8ce0ac76dd9cd86655899a636bffdce8138a0cdb2c1b582848684604051808573ffffffffffffffffffffffffffffffffffffffff1673ffffffffffffffffffffffffffffffffffffffff1681526020018473ffffffffffffffffffffffffffffffffffffffff1673ffffffffffffffffffffffffffffffffffffffff1681526020018373ffffffffffffffffffffffffffffffffffffffff1673ffffffffffffffffffffffffffffffffffffffff16815260200182815260200194505050505060405180910390a150505050565b6000809054906101000a900473ffffffffffffffffffffffffffffffffffffffff1681565b610eb88c8c8c8c8a8a88888080601f016020809104026020016040519081016040528093929190818152602001838380828437600081840152601f19601f820116905080830192505050505050506116d5565b610f508c8c8c8c8c8c8080601f016020809104026020016040519081016040528093929190818152602001838380828437600081840152601f19601f820116905080830192505050505050508b8b8b8b8080601f016020809104026020016040519081016040528093929190818152602001838380828437600081840152601f19601f820116905080830192505050505050506113ed565b505050505050505050505050565b6000809054906101000a900473ffffffffffffffffffffffffffffffffffffffff1673ffffffffffffffffffffffffffffffffffffffff163373ffffffffffffffffffffffffffffffffffffffff1614611003576040517f08c379a000000000000000000000000000000000000000000000000000000000815260040180806020018281038252602881526020018061207a6028913960400191505060405180910390fd5b600060149054906101000a900460ff16611068576040517f08c379a000000000000000000000000000000000000000000000000000000000815260040180806020018281038252602f815260200180612103602f913960400191505060405180910390fd5b60008060146101000a81548160ff0219169083151502179055507f0cabb9c05f9eeeadb6765f175642f19876b512ba15100b1391420b714b0c3d0060405160405180910390a1565b61110085858585858080601f016020809104026020016040519081016040528093929190818152602001838380828437600081840152601f19601f820116905080830192505050505050506117a4565b61110a8486611666565b5050505050565b60016020528060005260406000206000915054906101000a900460ff1681565b600061113e85858561186d565b905061114a8183611909565b73ffffffffffffffffffffffffffffffffffffffff168673ffffffffffffffffffffffffffffffffffffffff16146111ea576040517f08c379a000000000000000000000000000000000000000000000000000000000815260040180806020018281038252601c8152602001807f496e76616c696420436f6e74657374466f72205369676e61747572650000000081525060200191505060405180910390fd5b6111f4818761195c565b505050505050565b600083111561138c57600360009054906101000a900473ffffffffffffffffffffffffffffffffffffffff1673ffffffffffffffffffffffffffffffffffffffff16635ed5eb5085878686866040518663ffffffff167c0100000000000000000000000000000000000000000000000000000000028152600401808673ffffffffffffffffffffffffffffffffffffffff1673ffffffffffffffffffffffffffffffffffffffff1681526020018573ffffffffffffffffffffffffffffffffffffffff1673ffffffffffffffffffffffffffffffffffffffff16815260200184815260200183815260200180602001828103825283818151815260200191508051906020019080838360005b83811015611323578082015181840152602081019050611308565b50505050905090810190601f1680156113505780820380516001836020036101000a031916815260200191505b509650505050505050600060405180830381600087803b15801561137357600080fd5b505af1158015611387573d6000803e3d6000fd5b505050505b8373ffffffffffffffffffffffffffffffffffffffff168573ffffffffffffffffffffffffffffffffffffffff167f9a53975728a25417448708f6de6b9c942bbe4461c6647852e0b60c91c3c2fad360405160405180910390a35050505050565b6113f988848484611a7f565b7f53931139c48182587fa8ce0ac76dd9cd86655899a636bffdce8138a0cdb2c1b588888886604051808573ffffffffffffffffffffffffffffffffffffffff1673ffffffffffffffffffffffffffffffffffffffff1681526020018473ffffffffffffffffffffffffffffffffffffffff1673ffffffffffffffffffffffffffffffffffffffff1681526020018373ffffffffffffffffffffffffffffffffffffffff1673ffffffffffffffffffffffffffffffffffffffff16815260200182815260200194505050505060405180910390a1600085111561165c57600360009054906101000a900473ffffffffffffffffffffffffffffffffffffffff1673ffffffffffffffffffffffffffffffffffffffff16635ed5eb5087898886896040518663ffffffff167c0100000000000000000000000000000000000000000000000000000000028152600401808673ffffffffffffffffffffffffffffffffffffffff1673ffffffffffffffffffffffffffffffffffffffff1681526020018573ffffffffffffffffffffffffffffffffffffffff1673ffffffffffffffffffffffffffffffffffffffff16815260200184815260200183815260200180602001828103825283818151815260200191508051906020019080838360005b838110156115f35780820151818401526020810190506115d8565b50505050905090810190601f1680156116205780820380516001836020036101000a031916815260200191505b509650505050505050600060405180830381600087803b15801561164357600080fd5b505af1158015611657573d6000803e3d6000fd5b505050505b5050505050505050565b7f59d1b98a5da8bbc1db92f7d8d2e21c3067da65edbe08f4ae23df11487ee4c8b08282604051808381526020018273ffffffffffffffffffffffffffffffffffffffff1673ffffffffffffffffffffffffffffffffffffffff1681526020019250505060405180910390a15050565b60006116e48887878787611adf565b90506116f08183611909565b73ffffffffffffffffffffffffffffffffffffffff168773ffffffffffffffffffffffffffffffffffffffff1614611790576040517f08c379a000000000000000000000000000000000000000000000000000000000815260040180806020018281038252601b8152602001807f496e76616c696420417474657374466f72205369676e6174757265000000000081525060200191505060405180910390fd5b61179a818861195c565b5050505050505050565b60006117b08484611b9f565b90506117bc8183611909565b73ffffffffffffffffffffffffffffffffffffffff168573ffffffffffffffffffffffffffffffffffffffff161461185c576040517f08c379a000000000000000000000000000000000000000000000000000000000815260040180806020018281038252601b8152602001807f496e76616c6964205265766f6b65466f72205369676e6174757265000000000081525060200191505060405180910390fd5b611866818661195c565b5050505050565b60006002546118ab60405180606001604052808773ffffffffffffffffffffffffffffffffffffffff16815260200186815260200185815250611c1e565b60405160200180807f1901000000000000000000000000000000000000000000000000000000000000815250600201838152602001828152602001925050506040516020818303038152906040528051906020012090509392505050565b6000806119168484611cb6565b9050600073ffffffffffffffffffffffffffffffffffffffff168173ffffffffffffffffffffffffffffffffffffffff16141561195257600080fd5b8091505092915050565b60008282604051602001808381526020018273ffffffffffffffffffffffffffffffffffffffff1673ffffffffffffffffffffffffffffffffffffffff168152602001925050506040516020818303038152906040528051906020012090506001600082815260200190815260200160002060009054906101000a900460ff1615611a4f576040517f08c379a00000000000000000000000000000000000000000000000000000000081526004018080602001828103825260148152602001807f5369676e6174757265206e6f7420756e6971756500000000000000000000000081525060200191505060405180910390fd5b600180600083815260200190815260200160002060006101000a81548160ff021916908315150217905550505050565b6000611a8b8484611dbb565b9050611a978183611909565b73ffffffffffffffffffffffffffffffffffffffff168573ffffffffffffffffffffffffffffffffffffffff1614611ace57600080fd5b611ad8818661195c565b5050505050565b6000600254611b3f6040518060a001604052808973ffffffffffffffffffffffffffffffffffffffff1681526020018873ffffffffffffffffffffffffffffffffffffffff16815260200187815260200186815260200185815250611e3a565b60405160200180807f19010000000000000000000000000000000000000000000000000000000000008152506002018381526020018281526020019250505060405160208183030381529060405280519060200120905095945050505050565b6000600254611bc1604051806040016040528086815260200185815250611f16565b60405160200180807f19010000000000000000000000000000000000000000000000000000000000008152506002018381526020018281526020019250505060405160208183030381529060405280519060200120905092915050565b60006040518080611fd76041913960410190506040518091039020826000015183602001518460400151604051602001808581526020018473ffffffffffffffffffffffffffffffffffffffff1673ffffffffffffffffffffffffffffffffffffffff168152602001838152602001828152602001945050505050604051602081830303815290604052805190602001209050919050565b60006041825114611cca5760009050611db5565b60008060006020850151925060408501519150606085015160001a90507f7fffffffffffffffffffffffffffffff5d576e7357a4501ddfe92f46681b20a082600190041115611d1f5760009350505050611db5565b601b8160ff1614158015611d375750601c8160ff1614155b15611d485760009350505050611db5565b60018682858560405160008152602001604052604051808581526020018460ff1660ff1681526020018381526020018281526020019450505050506020604051602081039080840390855afa158015611da5573d6000803e3d6000fd5b5050506020604051035193505050505b92915050565b6000600254611ddd604051806040016040528086815260200185815250611f76565b60405160200180807f19010000000000000000000000000000000000000000000000000000000000008152506002018381526020018281526020019250505060405160208183030381529060405280519060200120905092915050565b600060405180806120a2606191396061019050604051809103902082600001518360200151846040015185606001518660800151604051602001808781526020018673ffffffffffffffffffffffffffffffffffffffff1673ffffffffffffffffffffffffffffffffffffffff1681526020018573ffffffffffffffffffffffffffffffffffffffff1673ffffffffffffffffffffffffffffffffffffffff1681526020018481526020018381526020018281526020019650505050505050604051602081830303815290604052805190602001209050919050565b60006040518080612018603091396030019050604051809103902082600001518360200151604051602001808481526020018381526020018281526020019350505050604051602081830303815290604052805190602001209050919050565b6000604051808061204860329139603201905060405180910390208260000151836020015160405160200180848152602001838152602001828152602001935050505060405160208183030381529060405280519060200120905091905056fe436f6e74657374466f722861646472657373207265717565737465722c75696e74323536207265776172642c6279746573333220726571756573744e6f6e6365295265766f6b654174746573746174696f6e466f722862797465733332206c696e6b2c62797465733332206e6f6e6365294174746573746174696f6e5265717565737428627974657333322064617461486173682c62797465733332206e6f6e6365294d6574686f642063616e206f6e6c792062652063616c6c656420627920696e697469616c697a6572417474657374466f722861646472657373207375626a6563742c61646472657373207265717565737465722c75696e74323536207265776172642c627974657333322064617461486173682c6279746573333220726571756573744e6f6e6365294d6574686f642063616e206f6e6c792062652063616c6c656420647572696e6720696e697469616c697a6174696f6ea165627a7a7230582020398b7da77ab89209606db7181162bc112df03d09926f440de139866087f0e30029454950373132446f6d61696e28737472696e67206e616d652c737472696e672076657273696f6e2c75696e7432353620636861696e49642c6164647265737320766572696679696e67436f6e747261637429",
  "source": "pragma solidity 0.5.7;\n\nimport \"./SigningLogic.sol\";\nimport \"./TokenEscrowMarketplace.sol\";\nimport \"./Initializable.sol\";\n\n/**\n * @title AttestationLogic allows users to submit attestations given valid signatures\n * @notice Attestation Logic Logic provides a public interface for Bloom and\n *  users to submit attestations.\n */\ncontract AttestationLogic is Initializable, SigningLogic{\n    TokenEscrowMarketplace public tokenEscrowMarketplace;\n\n  /**\n   * @notice AttestationLogic constructor sets the implementation address of all related contracts\n   * @param _tokenEscrowMarketplace Address of marketplace holding tokens which are\n   *  released to attesters upon completion of a job\n   */\n  constructor(\n    address _initializer,\n    TokenEscrowMarketplace _tokenEscrowMarketplace\n    ) Initializable(_initializer) SigningLogic(\"Bloom Attestation Logic\", \"2\", 1) public {\n    tokenEscrowMarketplace = _tokenEscrowMarketplace;\n  }\n\n  event TraitAttested(\n    address subject,\n    address attester,\n    address requester,\n    bytes32 dataHash\n    );\n  event AttestationRejected(address indexed attester, address indexed requester);\n  event AttestationRevoked(bytes32 link, address attester);\n  event TokenEscrowMarketplaceChanged(address oldTokenEscrowMarketplace, address newTokenEscrowMarketplace);\n\n  /**\n   * @notice Function for attester to submit attestation from their own account) \n   * @dev Wrapper for attestForUser using msg.sender\n   * @param _subject User this attestation is about\n   * @param _requester User requesting and paying for this attestation in BLT\n   * @param _reward Payment to attester from requester in BLT\n   * @param _requesterSig Signature authorizing payment from requester to attester\n   * @param _dataHash Hash of data being attested and nonce\n   * @param _requestNonce Nonce in sig signed by subject and requester so they can't be replayed\n   * @param _subjectSig Signed authorization from subject with attestation agreement\n   */\n  function attest(\n    address _subject,\n    address _requester,\n    uint256 _reward,\n    bytes calldata _requesterSig,\n    bytes32 _dataHash,\n    bytes32 _requestNonce,\n    bytes calldata _subjectSig // Sig of subject with requester, attester, dataHash, requestNonce\n  ) external {\n    attestForUser(\n      _subject,\n      msg.sender,\n      _requester,\n      _reward,\n      _requesterSig,\n      _dataHash,\n      _requestNonce,\n      _subjectSig\n    );\n  }\n\n  /**\n   * @notice Submit attestation for a user in order to pay the gas costs\n   * @dev Recover signer of delegation message. If attester matches delegation signature, add the attestation\n   * @param _subject user this attestation is about\n   * @param _attester user completing the attestation\n   * @param _requester user requesting this attestation be completed and paying for it in BLT\n   * @param _reward payment to attester from requester in BLT wei\n   * @param _requesterSig signature authorizing payment from requester to attester\n   * @param _dataHash hash of data being attested and nonce\n   * @param _requestNonce Nonce in sig signed by subject and requester so they can't be replayed\n   * @param _subjectSig signed authorization from subject with attestation agreement\n   * @param _delegationSig signature authorizing attestation on behalf of attester\n   */\n  function attestFor(\n    address _subject,\n    address _attester,\n    address _requester,\n    uint256 _reward,\n    bytes calldata _requesterSig,\n    bytes32 _dataHash,\n    bytes32 _requestNonce,\n    bytes calldata _subjectSig, // Sig of subject with dataHash and requestNonce\n    bytes calldata _delegationSig\n  ) external {\n    // Confirm attester address matches recovered address from signature\n    validateAttestForSig(_subject, _attester, _requester, _reward, _dataHash, _requestNonce, _delegationSig);\n    attestForUser(\n      _subject,\n      _attester,\n      _requester,\n      _reward,\n      _requesterSig,\n      _dataHash,\n      _requestNonce,\n      _subjectSig\n    );\n  }\n\n  /**\n   * @notice Perform attestation\n   * @dev Verify valid certainty level and user addresses\n   * @param _subject user this attestation is about\n   * @param _attester user completing the attestation\n   * @param _requester user requesting this attestation be completed and paying for it in BLT\n   * @param _reward payment to attester from requester in BLT wei\n   * @param _requesterSig signature authorizing payment from requester to attester\n   * @param _dataHash hash of data being attested and nonce\n   * @param _requestNonce Nonce in sig signed by subject and requester so they can't be replayed\n   * @param _subjectSig signed authorization from subject with attestation agreement\n   */\n  function attestForUser(\n    address _subject,\n    address _attester,\n    address _requester,\n    uint256 _reward,\n    bytes memory _requesterSig,\n    bytes32 _dataHash,\n    bytes32 _requestNonce,\n    bytes memory _subjectSig\n    ) private {\n    \n    validateSubjectSig(\n      _subject,\n      _dataHash,\n      _requestNonce,\n      _subjectSig\n    );\n\n    emit TraitAttested(\n      _subject,\n      _attester,\n      _requester,\n      _dataHash\n    );\n\n    if (_reward > 0) {\n      tokenEscrowMarketplace.requestTokenPayment(_requester, _attester, _reward, _requestNonce, _requesterSig);\n    }\n  }\n\n  /**\n   * @notice Function for attester to reject an attestation and receive payment \n   *  without associating the negative attestation with the subject's bloomId\n   * @param _requester User requesting and paying for this attestation in BLT\n   * @param _reward Payment to attester from requester in BLT\n   * @param _requestNonce Nonce in sig signed by requester so it can't be replayed\n   * @param _requesterSig Signature authorizing payment from requester to attester\n   */\n  function contest(\n    address _requester,\n    uint256 _reward,\n    bytes32 _requestNonce,\n    bytes calldata _requesterSig\n  ) external {\n    contestForUser(\n      msg.sender,\n      _requester,\n      _reward,\n      _requestNonce,\n      _requesterSig\n    );\n  }\n\n  /**\n   * @notice Function for attester to reject an attestation and receive payment \n   *  without associating the negative attestation with the subject's bloomId\n   *  Perform on behalf of attester to pay gas fees\n   * @param _requester User requesting and paying for this attestation in BLT\n   * @param _attester user completing the attestation\n   * @param _reward Payment to attester from requester in BLT\n   * @param _requestNonce Nonce in sig signed by requester so it can't be replayed\n   * @param _requesterSig Signature authorizing payment from requester to attester\n   */\n  function contestFor(\n    address _attester,\n    address _requester,\n    uint256 _reward,\n    bytes32 _requestNonce,\n    bytes calldata _requesterSig,\n    bytes calldata _delegationSig\n  ) external {\n    validateContestForSig(\n      _attester,\n      _requester,\n      _reward,\n      _requestNonce,\n      _delegationSig\n    );\n    contestForUser(\n      _attester,\n      _requester,\n      _reward,\n      _requestNonce,\n      _requesterSig\n    );\n  }\n\n  /**\n   * @notice Private function for attester to reject an attestation and receive payment \n   *  without associating the negative attestation with the subject's bloomId\n   * @param _attester user completing the attestation\n   * @param _requester user requesting this attestation be completed and paying for it in BLT\n   * @param _reward payment to attester from requester in BLT wei\n   * @param _requestNonce Nonce in sig signed by requester so it can't be replayed\n   * @param _requesterSig signature authorizing payment from requester to attester\n   */\n  function contestForUser(\n    address _attester,\n    address _requester,\n    uint256 _reward,\n    bytes32 _requestNonce,\n    bytes memory _requesterSig\n    ) private {\n\n    if (_reward > 0) {\n      tokenEscrowMarketplace.requestTokenPayment(_requester, _attester, _reward, _requestNonce, _requesterSig);\n    }\n    emit AttestationRejected(_attester, _requester);\n  }\n\n  /**\n   * @notice Verify subject signature is valid \n   * @param _subject user this attestation is about\n   * @param _dataHash hash of data being attested and nonce\n   * param _requestNonce Nonce in sig signed by subject so it can't be replayed\n   * @param _subjectSig Signed authorization from subject with attestation agreement\n   */\n  function validateSubjectSig(\n    address _subject,\n    bytes32 _dataHash,\n    bytes32 _requestNonce,\n    bytes memory _subjectSig\n  ) private {\n    bytes32 _signatureDigest = generateRequestAttestationSchemaHash(_dataHash, _requestNonce);\n    require(_subject == recoverSigner(_signatureDigest, _subjectSig));\n    burnSignatureDigest(_signatureDigest, _subject);\n  }\n\n  /**\n   * @notice Verify attester delegation signature is valid \n   * @param _subject user this attestation is about\n   * @param _attester user completing the attestation\n   * @param _requester user requesting this attestation be completed and paying for it in BLT\n   * @param _reward payment to attester from requester in BLT wei\n   * @param _dataHash hash of data being attested and nonce\n   * @param _requestNonce nonce in sig signed by subject so it can't be replayed\n   * @param _delegationSig signature authorizing attestation on behalf of attester\n   */\n  function validateAttestForSig(\n    address _subject,\n    address _attester,\n    address _requester,\n    uint256 _reward,\n    bytes32 _dataHash,\n    bytes32 _requestNonce,\n    bytes memory _delegationSig\n  ) private {\n    bytes32 _delegationDigest = generateAttestForDelegationSchemaHash(_subject, _requester, _reward, _dataHash, _requestNonce);\n    require(_attester == recoverSigner(_delegationDigest, _delegationSig), 'Invalid AttestFor Signature');\n    burnSignatureDigest(_delegationDigest, _attester);\n  }\n\n  /**\n   * @notice Verify attester delegation signature is valid \n   * @param _attester user completing the attestation\n   * @param _requester user requesting this attestation be completed and paying for it in BLT\n   * @param _reward payment to attester from requester in BLT wei\n   * @param _requestNonce nonce referenced in TokenEscrowMarketplace so payment sig can't be replayed\n   * @param _delegationSig signature authorizing attestation on behalf of attester\n   */\n  function validateContestForSig(\n    address _attester,\n    address _requester,\n    uint256 _reward,\n    bytes32 _requestNonce,\n    bytes memory _delegationSig\n  ) private {\n    bytes32 _delegationDigest = generateContestForDelegationSchemaHash(_requester, _reward, _requestNonce);\n    require(_attester == recoverSigner(_delegationDigest, _delegationSig), 'Invalid ContestFor Signature');\n    burnSignatureDigest(_delegationDigest, _attester);\n  }\n\n  /**\n   * @notice Submit attestation completed prior to deployment of this contract\n   * @dev Gives initializer privileges to write attestations during the initialization period without signatures\n   * @param _requester user requesting this attestation be completed \n   * @param _attester user completing the attestation\n   * @param _subject user this attestation is about\n   * @param _dataHash hash of data being attested\n   */\n  function migrateAttestation(\n    address _requester,\n    address _attester,\n    address _subject,\n    bytes32 _dataHash\n  ) public onlyDuringInitialization {\n    emit TraitAttested(\n      _subject,\n      _attester,\n      _requester,\n      _dataHash\n    );\n  }\n\n  /**\n   * @notice Revoke an attestation\n   * @dev Link is included in dataHash and cannot be directly connected to a BloomID\n   * @param _link bytes string embedded in dataHash to link revocation\n   */\n  function revokeAttestation(\n    bytes32 _link\n    ) external {\n      revokeAttestationForUser(_link, msg.sender);\n  }\n\n  /**\n   * @notice Revoke an attestation\n   * @dev Link is included in dataHash and cannot be directly connected to a BloomID\n   * @param _link bytes string embedded in dataHash to link revocation\n   */\n  function revokeAttestationFor(\n    address _sender,\n    bytes32 _link,\n    bytes32 _nonce,\n    bytes calldata _delegationSig\n    ) external {\n      validateRevokeForSig(_sender, _link, _nonce, _delegationSig);\n      revokeAttestationForUser(_link, _sender);\n  }\n\n  /**\n   * @notice Verify revocation signature is valid \n   * @param _link bytes string embedded in dataHash to link revocation\n   * @param _sender user revoking attestation\n   * @param _delegationSig signature authorizing revocation on behalf of revoker\n   */\n  function validateRevokeForSig(\n    address _sender,\n    bytes32 _link,\n    bytes32 _nonce,\n    bytes memory _delegationSig\n  ) private {\n    bytes32 _delegationDigest = generateRevokeAttestationForDelegationSchemaHash(_link, _nonce);\n    require(_sender == recoverSigner(_delegationDigest, _delegationSig), 'Invalid RevokeFor Signature');\n    burnSignatureDigest(_delegationDigest, _sender);\n  }\n\n  /**\n   * @notice Revoke an attestation\n   * @dev Link is included in dataHash and cannot be directly connected to a BloomID\n   * @param _link bytes string embedded in dataHash to link revocation\n   * @param _sender address identify revoker\n   */\n  function revokeAttestationForUser(\n    bytes32 _link,\n    address _sender\n    ) private {\n      emit AttestationRevoked(_link, _sender);\n  }\n\n    /**\n   * @notice Set the implementation of the TokenEscrowMarketplace contract by setting a new address\n   * @dev Restricted to initializer\n   * @param _newTokenEscrowMarketplace Address of new SigningLogic implementation\n   */\n  function setTokenEscrowMarketplace(TokenEscrowMarketplace _newTokenEscrowMarketplace) external onlyDuringInitialization {\n    address oldTokenEscrowMarketplace = address(tokenEscrowMarketplace);\n    tokenEscrowMarketplace = _newTokenEscrowMarketplace;\n    emit TokenEscrowMarketplaceChanged(oldTokenEscrowMarketplace, address(tokenEscrowMarketplace));\n  }\n\n}\n",
  "sourcePath": "/Users/pierrick/Documents/04-OSS/08-Graph/01-Bloom/core/contracts/AttestationLogic.sol",
  "compiler": {
    "name": "solc",
    "version": "0.5.7+commit.6da8b019.Emscripten.clang"
  },
  "schemaVersion": "3.0.9",
  "updatedAt": "2019-05-11T17:39:17.637Z",
  "devdoc": {
    "methods": {
      "attest(address,address,uint256,bytes,bytes32,bytes32,bytes)": {
        "details": "Wrapper for attestForUser using msg.sender",
        "params": {
          "_dataHash": "Hash of data being attested and nonce",
          "_requestNonce": "Nonce in sig signed by subject and requester so they can't be replayed",
          "_requester": "User requesting and paying for this attestation in BLT",
          "_requesterSig": "Signature authorizing payment from requester to attester",
          "_reward": "Payment to attester from requester in BLT",
          "_subject": "User this attestation is about",
          "_subjectSig": "Signed authorization from subject with attestation agreement"
        }
      },
      "attestFor(address,address,address,uint256,bytes,bytes32,bytes32,bytes,bytes)": {
        "details": "Recover signer of delegation message. If attester matches delegation signature, add the attestation",
        "params": {
          "_attester": "user completing the attestation",
          "_dataHash": "hash of data being attested and nonce",
          "_delegationSig": "signature authorizing attestation on behalf of attester",
          "_requestNonce": "Nonce in sig signed by subject and requester so they can't be replayed",
          "_requester": "user requesting this attestation be completed and paying for it in BLT",
          "_requesterSig": "signature authorizing payment from requester to attester",
          "_reward": "payment to attester from requester in BLT wei",
          "_subject": "user this attestation is about",
          "_subjectSig": "signed authorization from subject with attestation agreement"
        }
      },
      "constructor": {
        "params": {
          "_tokenEscrowMarketplace": "Address of marketplace holding tokens which are released to attesters upon completion of a job"
        }
      },
      "contest(address,uint256,bytes32,bytes)": {
        "params": {
          "_requestNonce": "Nonce in sig signed by requester so it can't be replayed",
          "_requester": "User requesting and paying for this attestation in BLT",
          "_requesterSig": "Signature authorizing payment from requester to attester",
          "_reward": "Payment to attester from requester in BLT"
        }
      },
      "contestFor(address,address,uint256,bytes32,bytes,bytes)": {
        "params": {
          "_attester": "user completing the attestation",
          "_requestNonce": "Nonce in sig signed by requester so it can't be replayed",
          "_requester": "User requesting and paying for this attestation in BLT",
          "_requesterSig": "Signature authorizing payment from requester to attester",
          "_reward": "Payment to attester from requester in BLT"
        }
      },
      "endInitialization()": {
        "details": "Allows the initializer to end the initialization period"
      },
      "migrateAttestation(address,address,address,bytes32)": {
        "details": "Gives initializer privileges to write attestations during the initialization period without signatures",
        "params": {
          "_attester": "user completing the attestation",
          "_dataHash": "hash of data being attested",
          "_requester": "user requesting this attestation be completed ",
          "_subject": "user this attestation is about"
        }
      },
      "revokeAttestation(bytes32)": {
        "details": "Link is included in dataHash and cannot be directly connected to a BloomID",
        "params": {
          "_link": "bytes string embedded in dataHash to link revocation"
        }
      },
      "revokeAttestationFor(address,bytes32,bytes32,bytes)": {
        "details": "Link is included in dataHash and cannot be directly connected to a BloomID",
        "params": {
          "_link": "bytes string embedded in dataHash to link revocation"
        }
      },
      "setTokenEscrowMarketplace(address)": {
        "details": "Restricted to initializer",
        "params": {
          "_newTokenEscrowMarketplace": "Address of new SigningLogic implementation"
        }
      }
    },
    "title": "AttestationLogic allows users to submit attestations given valid signatures"
  },
  "userdoc": {
    "methods": {
      "attest(address,address,uint256,bytes,bytes32,bytes32,bytes)": {
        "notice": "Function for attester to submit attestation from their own account) "
      },
      "attestFor(address,address,address,uint256,bytes,bytes32,bytes32,bytes,bytes)": {
        "notice": "Submit attestation for a user in order to pay the gas costs"
      },
      "constructor": "AttestationLogic constructor sets the implementation address of all related contracts",
      "contest(address,uint256,bytes32,bytes)": {
        "notice": "Function for attester to reject an attestation and receive payment  without associating the negative attestation with the subject's bloomId"
      },
      "contestFor(address,address,uint256,bytes32,bytes,bytes)": {
        "notice": "Function for attester to reject an attestation and receive payment  without associating the negative attestation with the subject's bloomId Perform on behalf of attester to pay gas fees"
      },
      "migrateAttestation(address,address,address,bytes32)": {
        "notice": "Submit attestation completed prior to deployment of this contract"
      },
      "revokeAttestation(bytes32)": {
        "notice": "Revoke an attestation"
      },
      "revokeAttestationFor(address,bytes32,bytes32,bytes)": {
        "notice": "Revoke an attestation"
      },
      "setTokenEscrowMarketplace(address)": {
        "notice": "Set the implementation of the TokenEscrowMarketplace contract by setting a new address"
      }
    },
    "notice": "Attestation Logic Logic provides a public interface for Bloom and users to submit attestations."
  }
}