{
  "contractName": "AccreditationRepo",
  "abi": [
    {
      "constant": true,
      "inputs": [
        {
          "name": "",
          "type": "address"
        }
      ],
      "name": "accreditations",
      "outputs": [
        {
          "name": "",
          "type": "bool"
        }
      ],
      "payable": false,
      "stateMutability": "view",
      "type": "function"
    },
    {
      "constant": false,
      "inputs": [],
      "name": "renounceOwnership",
      "outputs": [],
      "payable": false,
      "stateMutability": "nonpayable",
      "type": "function"
    },
    {
      "constant": true,
      "inputs": [],
      "name": "owner",
      "outputs": [
        {
          "name": "",
          "type": "address"
        }
      ],
      "payable": false,
      "stateMutability": "view",
      "type": "function"
    },
    {
      "constant": true,
      "inputs": [],
      "name": "isOwner",
      "outputs": [
        {
          "name": "",
          "type": "bool"
        }
      ],
      "payable": false,
      "stateMutability": "view",
      "type": "function"
    },
    {
      "constant": false,
      "inputs": [
        {
          "name": "newOwner",
          "type": "address"
        }
      ],
      "name": "transferOwnership",
      "outputs": [],
      "payable": false,
      "stateMutability": "nonpayable",
      "type": "function"
    },
    {
      "constant": true,
      "inputs": [],
      "name": "admin",
      "outputs": [
        {
          "name": "",
          "type": "address"
        }
      ],
      "payable": false,
      "stateMutability": "view",
      "type": "function"
    },
    {
      "inputs": [
        {
          "name": "_admin",
          "type": "address"
        }
      ],
      "payable": false,
      "stateMutability": "nonpayable",
      "type": "constructor"
    },
    {
      "anonymous": false,
      "inputs": [
        {
          "indexed": false,
          "name": "oldAdmin",
          "type": "address"
        },
        {
          "indexed": false,
          "name": "newAdmin",
          "type": "address"
        }
      ],
      "name": "AdminChanged",
      "type": "event"
    },
    {
      "anonymous": false,
      "inputs": [
        {
          "indexed": false,
          "name": "attester",
          "type": "address"
        }
      ],
      "name": "AccreditationGranted",
      "type": "event"
    },
    {
      "anonymous": false,
      "inputs": [
        {
          "indexed": false,
          "name": "attester",
          "type": "address"
        }
      ],
      "name": "AccreditationRevoked",
      "type": "event"
    },
    {
      "anonymous": false,
      "inputs": [
        {
          "indexed": true,
          "name": "previousOwner",
          "type": "address"
        },
        {
          "indexed": true,
          "name": "newOwner",
          "type": "address"
        }
      ],
      "name": "OwnershipTransferred",
      "type": "event"
    },
    {
      "constant": false,
      "inputs": [
        {
          "name": "_attester",
          "type": "address"
        }
      ],
      "name": "grantAccreditation",
      "outputs": [],
      "payable": false,
      "stateMutability": "nonpayable",
      "type": "function"
    },
    {
      "constant": false,
      "inputs": [
        {
          "name": "_attester",
          "type": "address"
        }
      ],
      "name": "revokeAccreditation",
      "outputs": [],
      "payable": false,
      "stateMutability": "nonpayable",
      "type": "function"
    },
    {
      "constant": false,
      "inputs": [
        {
          "name": "_newAdmin",
          "type": "address"
        }
      ],
      "name": "setAdmin",
      "outputs": [],
      "payable": false,
      "stateMutability": "nonpayable",
      "type": "function"
    }
  ],
  "bytecode": "0x608060405234801561001057600080fd5b50604051602080610b6b8339810180604052602081101561003057600080fd5b8101908080519060200190929190505050336000806101000a81548173ffffffffffffffffffffffffffffffffffffffff021916908373ffffffffffffffffffffffffffffffffffffffff1602179055506000809054906101000a900473ffffffffffffffffffffffffffffffffffffffff1673ffffffffffffffffffffffffffffffffffffffff16600073ffffffffffffffffffffffffffffffffffffffff167f8be0079c531659141344cd1fd0a4f28419497f9722a3daafe3b4186f6b6457e060405160405180910390a380600160006101000a81548173ffffffffffffffffffffffffffffffffffffffff021916908373ffffffffffffffffffffffffffffffffffffffff16021790555050610a1d8061014e6000396000f3fe608060405234801561001057600080fd5b50600436106100af576000357c0100000000000000000000000000000000000000000000000000000000900480638da5cb5b116100835780638da5cb5b146101a25780638f32d59b146101ec5780639300ca551461020e578063f2fde38b14610252578063f851a44014610296576100af565b8062d487a3146100b4578063704b6c0214610110578063715018a614610154578063759fa1681461015e575b600080fd5b6100f6600480360360208110156100ca57600080fd5b81019080803573ffffffffffffffffffffffffffffffffffffffff1690602001909291905050506102e0565b604051808215151515815260200191505060405180910390f35b6101526004803603602081101561012657600080fd5b81019080803573ffffffffffffffffffffffffffffffffffffffff169060200190929190505050610300565b005b61015c610489565b005b6101a06004803603602081101561017457600080fd5b81019080803573ffffffffffffffffffffffffffffffffffffffff169060200190929190505050610559565b005b6101aa6106c7565b604051808273ffffffffffffffffffffffffffffffffffffffff1673ffffffffffffffffffffffffffffffffffffffff16815260200191505060405180910390f35b6101f46106f0565b604051808215151515815260200191505060405180910390f35b6102506004803603602081101561022457600080fd5b81019080803573ffffffffffffffffffffffffffffffffffffffff169060200190929190505050610747565b005b6102946004803603602081101561026857600080fd5b81019080803573ffffffffffffffffffffffffffffffffffffffff1690602001909291905050506108b6565b005b61029e6108d3565b604051808273ffffffffffffffffffffffffffffffffffffffff1673ffffffffffffffffffffffffffffffffffffffff16815260200191505060405180910390f35b60026020528060005260406000206000915054906101000a900460ff1681565b6103086106f0565b61031157600080fd5b80600073ffffffffffffffffffffffffffffffffffffffff168173ffffffffffffffffffffffffffffffffffffffff16141561034c57600080fd5b6000600160009054906101000a900473ffffffffffffffffffffffffffffffffffffffff1690508073ffffffffffffffffffffffffffffffffffffffff168373ffffffffffffffffffffffffffffffffffffffff1614156103ac57600080fd5b82600160006101000a81548173ffffffffffffffffffffffffffffffffffffffff021916908373ffffffffffffffffffffffffffffffffffffffff1602179055507f7e644d79422f17c01e4894b5f4f588d331ebfa28653d42ae832dc59e38c9798f8184604051808373ffffffffffffffffffffffffffffffffffffffff1673ffffffffffffffffffffffffffffffffffffffff1681526020018273ffffffffffffffffffffffffffffffffffffffff1673ffffffffffffffffffffffffffffffffffffffff1681526020019250505060405180910390a1505050565b6104916106f0565b61049a57600080fd5b600073ffffffffffffffffffffffffffffffffffffffff166000809054906101000a900473ffffffffffffffffffffffffffffffffffffffff1673ffffffffffffffffffffffffffffffffffffffff167f8be0079c531659141344cd1fd0a4f28419497f9722a3daafe3b4186f6b6457e060405160405180910390a360008060006101000a81548173ffffffffffffffffffffffffffffffffffffffff021916908373ffffffffffffffffffffffffffffffffffffffff160217905550565b600160009054906101000a900473ffffffffffffffffffffffffffffffffffffffff1673ffffffffffffffffffffffffffffffffffffffff163373ffffffffffffffffffffffffffffffffffffffff16146105b357600080fd5b600260008273ffffffffffffffffffffffffffffffffffffffff1673ffffffffffffffffffffffffffffffffffffffff16815260200190815260200160002060009054906101000a900460ff1661060957600080fd5b6000600260008373ffffffffffffffffffffffffffffffffffffffff1673ffffffffffffffffffffffffffffffffffffffff16815260200190815260200160002060006101000a81548160ff0219169083151502179055507fe4d8a41de8b213538d046280038e7c377183308833b9fbc8492612aa2aaf8a5d81604051808273ffffffffffffffffffffffffffffffffffffffff1673ffffffffffffffffffffffffffffffffffffffff16815260200191505060405180910390a150565b60008060009054906101000a900473ffffffffffffffffffffffffffffffffffffffff16905090565b60008060009054906101000a900473ffffffffffffffffffffffffffffffffffffffff1673ffffffffffffffffffffffffffffffffffffffff163373ffffffffffffffffffffffffffffffffffffffff1614905090565b600160009054906101000a900473ffffffffffffffffffffffffffffffffffffffff1673ffffffffffffffffffffffffffffffffffffffff163373ffffffffffffffffffffffffffffffffffffffff16146107a157600080fd5b600260008273ffffffffffffffffffffffffffffffffffffffff1673ffffffffffffffffffffffffffffffffffffffff16815260200190815260200160002060009054906101000a900460ff16156107f857600080fd5b6001600260008373ffffffffffffffffffffffffffffffffffffffff1673ffffffffffffffffffffffffffffffffffffffff16815260200190815260200160002060006101000a81548160ff0219169083151502179055507f1cdf321771e3264e524aef7940b152604118a0c3bb9a3f08479a43ea386b84e681604051808273ffffffffffffffffffffffffffffffffffffffff1673ffffffffffffffffffffffffffffffffffffffff16815260200191505060405180910390a150565b6108be6106f0565b6108c757600080fd5b6108d0816108f9565b50565b600160009054906101000a900473ffffffffffffffffffffffffffffffffffffffff1681565b600073ffffffffffffffffffffffffffffffffffffffff168173ffffffffffffffffffffffffffffffffffffffff16141561093357600080fd5b8073ffffffffffffffffffffffffffffffffffffffff166000809054906101000a900473ffffffffffffffffffffffffffffffffffffffff1673ffffffffffffffffffffffffffffffffffffffff167f8be0079c531659141344cd1fd0a4f28419497f9722a3daafe3b4186f6b6457e060405160405180910390a3806000806101000a81548173ffffffffffffffffffffffffffffffffffffffff021916908373ffffffffffffffffffffffffffffffffffffffff1602179055505056fea165627a7a72305820b9709a7ca7bcfce22bf6d3aa7e96910df84562445656c108efc724dc93b0b9e60029",
  "source": "pragma solidity 0.5.7;\n\nimport \"openzeppelin-solidity/contracts/ownership/Ownable.sol\";\n\n/**\n * @title AccreditationRepo stores the whitelisted attesters\n * @notice Bloom stores a whitelist of accredited attesters.\n *  This list is queried during the whisper negotiation process\n *  to ensure trusted attesters are bidding on jobs.\n *  In future versions of this contract, accreditation will be sourced by the community\n */\ncontract AccreditationRepo is Ownable{\n  address public admin;\n\n  /**\n   * @notice AccreditationRepo constructor sets the admin\n   * @param _admin Address of admin which can grant and revoke accreditation\n   */\n  constructor(address _admin) public {\n    admin = _admin;\n  }\n\n  // Map address to bool indicating accreditation\n  mapping(address => bool) public accreditations;\n\n  event AdminChanged(address oldAdmin, address newAdmin);\n  event AccreditationGranted(address attester);\n  event AccreditationRevoked(address attester);\n\n  modifier onlyAdmin() {\n    require(msg.sender == admin);\n    _;\n  }\n\n  /**\n   * @dev Zero address not allowed\n   */\n  modifier nonZero(address _address) {\n    require(_address != address(0));\n    _;\n  }\n\n  /**\n   * @notice grantAccreditation adds an attester address to the whitelist\n   * @dev Restricted to admin which can be an externally owned account or a contract\n   *  enabling vote based administration\n   * @param _attester Address to whitelist\n   */\n  function grantAccreditation(address _attester) external onlyAdmin {\n    require (!accreditations[_attester]);\n    accreditations[_attester] = true;\n    emit AccreditationGranted(_attester);\n  }\n\n  /**\n   * @notice revokeAttestation removes an attester address from the whitelist\n   * @dev Restricted to admin which can be an externally owned account or a contract\n   *  enabling vote based administration\n   * @param _attester Address to remove\n   */\n  function revokeAccreditation(address _attester) external onlyAdmin {\n    require (accreditations[_attester]);\n    accreditations[_attester] = false;\n    emit AccreditationRevoked(_attester);\n  }\n\n  /**\n   * @notice setAdmin changes the contract admin which has privileges to grant and revoke accreditation\n   * @dev Restricted to contract owner\n   * @param _newAdmin address of new admin user or contract\n   */\n  function setAdmin(address _newAdmin) public onlyOwner nonZero(_newAdmin) {\n    address _oldAdmin = admin;\n    require (_newAdmin != _oldAdmin);\n    admin = _newAdmin;\n    emit AdminChanged(_oldAdmin, _newAdmin);\n  }\n}\n",
  "sourcePath": "/Users/pierrick/Documents/04-OSS/08-Graph/01-Bloom/graph/contracts/AccreditationRepo.sol",
  "compiler": {
    "name": "solc",
    "version": "0.5.7+commit.6da8b019.Emscripten.clang"
  },
  "schemaVersion": "3.0.9",
  "updatedAt": "2019-05-11T18:09:30.465Z",
  "devdoc": {
    "methods": {
      "constructor": {
        "params": {
          "_admin": "Address of admin which can grant and revoke accreditation"
        }
      },
      "grantAccreditation(address)": {
        "details": "Restricted to admin which can be an externally owned account or a contract enabling vote based administration",
        "params": {
          "_attester": "Address to whitelist"
        }
      },
      "isOwner()": {
        "return": "true if `msg.sender` is the owner of the contract."
      },
      "owner()": {
        "return": "the address of the owner."
      },
      "renounceOwnership()": {
        "details": "Allows the current owner to relinquish control of the contract. It will not be possible to call the functions with the `onlyOwner` modifier anymore."
      },
      "revokeAccreditation(address)": {
        "details": "Restricted to admin which can be an externally owned account or a contract enabling vote based administration",
        "params": {
          "_attester": "Address to remove"
        }
      },
      "setAdmin(address)": {
        "details": "Restricted to contract owner",
        "params": {
          "_newAdmin": "address of new admin user or contract"
        }
      },
      "transferOwnership(address)": {
        "details": "Allows the current owner to transfer control of the contract to a newOwner.",
        "params": {
          "newOwner": "The address to transfer ownership to."
        }
      }
    },
    "title": "AccreditationRepo stores the whitelisted attesters"
  },
  "userdoc": {
    "methods": {
      "constructor": "AccreditationRepo constructor sets the admin",
      "grantAccreditation(address)": {
        "notice": "grantAccreditation adds an attester address to the whitelist"
      },
      "renounceOwnership()": {
        "notice": "Renouncing ownership will leave the contract without an owner, thereby removing any functionality that is only available to the owner."
      },
      "revokeAccreditation(address)": {
        "notice": "revokeAttestation removes an attester address from the whitelist"
      },
      "setAdmin(address)": {
        "notice": "setAdmin changes the contract admin which has privileges to grant and revoke accreditation"
      }
    },
    "notice": "Bloom stores a whitelist of accredited attesters. This list is queried during the whisper negotiation process to ensure trusted attesters are bidding on jobs. In future versions of this contract, accreditation will be sourced by the community"
  }
}