{
  "contractName": "BatchInitializer",
  "abi": [
    {
      "constant": true,
      "inputs": [],
      "name": "attestationLogic",
      "outputs": [
        {
          "name": "",
          "type": "address"
        }
      ],
      "payable": false,
      "stateMutability": "view",
      "type": "function"
    },
    {
      "constant": false,
      "inputs": [],
      "name": "renounceOwnership",
      "outputs": [],
      "payable": false,
      "stateMutability": "nonpayable",
      "type": "function"
    },
    {
      "constant": true,
      "inputs": [],
      "name": "owner",
      "outputs": [
        {
          "name": "",
          "type": "address"
        }
      ],
      "payable": false,
      "stateMutability": "view",
      "type": "function"
    },
    {
      "constant": true,
      "inputs": [],
      "name": "isOwner",
      "outputs": [
        {
          "name": "",
          "type": "bool"
        }
      ],
      "payable": false,
      "stateMutability": "view",
      "type": "function"
    },
    {
      "constant": true,
      "inputs": [],
      "name": "registryLogic",
      "outputs": [
        {
          "name": "",
          "type": "address"
        }
      ],
      "payable": false,
      "stateMutability": "view",
      "type": "function"
    },
    {
      "constant": false,
      "inputs": [
        {
          "name": "newOwner",
          "type": "address"
        }
      ],
      "name": "transferOwnership",
      "outputs": [],
      "payable": false,
      "stateMutability": "nonpayable",
      "type": "function"
    },
    {
      "constant": true,
      "inputs": [],
      "name": "admin",
      "outputs": [
        {
          "name": "",
          "type": "address"
        }
      ],
      "payable": false,
      "stateMutability": "view",
      "type": "function"
    },
    {
      "inputs": [
        {
          "name": "_attestationLogic",
          "type": "address"
        },
        {
          "name": "_registryLogic",
          "type": "address"
        }
      ],
      "payable": false,
      "stateMutability": "nonpayable",
      "type": "constructor"
    },
    {
      "anonymous": false,
      "inputs": [
        {
          "indexed": false,
          "name": "currentAddress",
          "type": "address"
        },
        {
          "indexed": false,
          "name": "newAddress",
          "type": "address"
        }
      ],
      "name": "linkSkipped",
      "type": "event"
    },
    {
      "anonymous": false,
      "inputs": [
        {
          "indexed": true,
          "name": "previousOwner",
          "type": "address"
        },
        {
          "indexed": true,
          "name": "newOwner",
          "type": "address"
        }
      ],
      "name": "OwnershipTransferred",
      "type": "event"
    },
    {
      "constant": false,
      "inputs": [
        {
          "name": "_newAdmin",
          "type": "address"
        }
      ],
      "name": "setAdmin",
      "outputs": [],
      "payable": false,
      "stateMutability": "nonpayable",
      "type": "function"
    },
    {
      "constant": false,
      "inputs": [
        {
          "name": "_newRegistryLogic",
          "type": "address"
        }
      ],
      "name": "setRegistryLogic",
      "outputs": [],
      "payable": false,
      "stateMutability": "nonpayable",
      "type": "function"
    },
    {
      "constant": false,
      "inputs": [
        {
          "name": "_newAttestationLogic",
          "type": "address"
        }
      ],
      "name": "setAttestationLogic",
      "outputs": [],
      "payable": false,
      "stateMutability": "nonpayable",
      "type": "function"
    },
    {
      "constant": false,
      "inputs": [
        {
          "name": "_newMarketplace",
          "type": "address"
        }
      ],
      "name": "setTokenEscrowMarketplace",
      "outputs": [],
      "payable": false,
      "stateMutability": "nonpayable",
      "type": "function"
    },
    {
      "constant": false,
      "inputs": [
        {
          "name": "_initializable",
          "type": "address"
        }
      ],
      "name": "endInitialization",
      "outputs": [],
      "payable": false,
      "stateMutability": "nonpayable",
      "type": "function"
    },
    {
      "constant": false,
      "inputs": [
        {
          "name": "_currentAddresses",
          "type": "address[]"
        },
        {
          "name": "_newAddresses",
          "type": "address[]"
        }
      ],
      "name": "batchLinkAddresses",
      "outputs": [],
      "payable": false,
      "stateMutability": "nonpayable",
      "type": "function"
    },
    {
      "constant": false,
      "inputs": [
        {
          "name": "_requesters",
          "type": "address[]"
        },
        {
          "name": "_attesters",
          "type": "address[]"
        },
        {
          "name": "_subjects",
          "type": "address[]"
        },
        {
          "name": "_dataHashes",
          "type": "bytes32[]"
        }
      ],
      "name": "batchMigrateAttestations",
      "outputs": [],
      "payable": false,
      "stateMutability": "nonpayable",
      "type": "function"
    }
  ],
  "bytecode": "0x608060405234801561001057600080fd5b506040516040806114178339810180604052604081101561003057600080fd5b810190808051906020019092919080519060200190929190505050336000806101000a81548173ffffffffffffffffffffffffffffffffffffffff021916908373ffffffffffffffffffffffffffffffffffffffff1602179055506000809054906101000a900473ffffffffffffffffffffffffffffffffffffffff1673ffffffffffffffffffffffffffffffffffffffff16600073ffffffffffffffffffffffffffffffffffffffff167f8be0079c531659141344cd1fd0a4f28419497f9722a3daafe3b4186f6b6457e060405160405180910390a381600260006101000a81548173ffffffffffffffffffffffffffffffffffffffff021916908373ffffffffffffffffffffffffffffffffffffffff16021790555080600160006101000a81548173ffffffffffffffffffffffffffffffffffffffff021916908373ffffffffffffffffffffffffffffffffffffffff16021790555033600360006101000a81548173ffffffffffffffffffffffffffffffffffffffff021916908373ffffffffffffffffffffffffffffffffffffffff160217905550505061123c806101db6000396000f3fe608060405234801561001057600080fd5b5060043610610107576000357c0100000000000000000000000000000000000000000000000000000000900480638da5cb5b116100a9578063bdf2eab011610083578063bdf2eab014610522578063c35a779214610566578063f2fde38b146105b0578063f851a440146105f457610107565b80638da5cb5b1461033e5780638f32d59b14610388578063ada774a3146103aa57610107565b80633c96be54116100e55780633c96be54146102625780633d0327f4146102a6578063704b6c02146102f0578063715018a61461033457610107565b806315eb70d81461010c57806319354750146101da5780633c7367781461021e575b600080fd5b6101d86004803603604081101561012257600080fd5b810190808035906020019064010000000081111561013f57600080fd5b82018360208201111561015157600080fd5b8035906020019184602083028401116401000000008311171561017357600080fd5b90919293919293908035906020019064010000000081111561019457600080fd5b8201836020820111156101a657600080fd5b803590602001918460208302840111640100000000831117156101c857600080fd5b909192939192939050505061063e565b005b61021c600480360360208110156101f057600080fd5b81019080803573ffffffffffffffffffffffffffffffffffffffff169060200190929190505050610a3b565b005b6102606004803603602081101561023457600080fd5b81019080803573ffffffffffffffffffffffffffffffffffffffff169060200190929190505050610a90565b005b6102a46004803603602081101561027857600080fd5b81019080803573ffffffffffffffffffffffffffffffffffffffff169060200190929190505050610b79565b005b6102ae610bce565b604051808273ffffffffffffffffffffffffffffffffffffffff1673ffffffffffffffffffffffffffffffffffffffff16815260200191505060405180910390f35b6103326004803603602081101561030657600080fd5b81019080803573ffffffffffffffffffffffffffffffffffffffff169060200190929190505050610bf4565b005b61033c610c49565b005b610346610d19565b604051808273ffffffffffffffffffffffffffffffffffffffff1673ffffffffffffffffffffffffffffffffffffffff16815260200191505060405180910390f35b610390610d42565b604051808215151515815260200191505060405180910390f35b610520600480360360808110156103c057600080fd5b81019080803590602001906401000000008111156103dd57600080fd5b8201836020820111156103ef57600080fd5b8035906020019184602083028401116401000000008311171561041157600080fd5b90919293919293908035906020019064010000000081111561043257600080fd5b82018360208201111561044457600080fd5b8035906020019184602083028401116401000000008311171561046657600080fd5b90919293919293908035906020019064010000000081111561048757600080fd5b82018360208201111561049957600080fd5b803590602001918460208302840111640100000000831117156104bb57600080fd5b9091929391929390803590602001906401000000008111156104dc57600080fd5b8201836020820111156104ee57600080fd5b8035906020019184602083028401116401000000008311171561051057600080fd5b9091929391929390505050610d99565b005b6105646004803603602081101561053857600080fd5b81019080803573ffffffffffffffffffffffffffffffffffffffff16906020019092919050505061101f565b005b61056e6110af565b604051808273ffffffffffffffffffffffffffffffffffffffff1673ffffffffffffffffffffffffffffffffffffffff16815260200191505060405180910390f35b6105f2600480360360208110156105c657600080fd5b81019080803573ffffffffffffffffffffffffffffffffffffffff1690602001909291905050506110d5565b005b6105fc6110f2565b604051808273ffffffffffffffffffffffffffffffffffffffff1673ffffffffffffffffffffffffffffffffffffffff16815260200191505060405180910390f35b600360009054906101000a900473ffffffffffffffffffffffffffffffffffffffff1673ffffffffffffffffffffffffffffffffffffffff163373ffffffffffffffffffffffffffffffffffffffff161461069857600080fd5b8181905084849050146106aa57600080fd5b60008090505b84849050811015610a34576000600160009054906101000a900473ffffffffffffffffffffffffffffffffffffffff1673ffffffffffffffffffffffffffffffffffffffff1663a066447d85858581811061070757fe5b9050602002013573ffffffffffffffffffffffffffffffffffffffff166040518263ffffffff167c0100000000000000000000000000000000000000000000000000000000028152600401808273ffffffffffffffffffffffffffffffffffffffff1673ffffffffffffffffffffffffffffffffffffffff16815260200191505060206040518083038186803b1580156107a057600080fd5b505afa1580156107b4573d6000803e3d6000fd5b505050506040513d60208110156107ca57600080fd5b810190808051906020019092919050505011156108cd577f95951b574926c0149d3746d884306580822ee73042c79d70a2d03a7a4d0de8aa85858381811061080e57fe5b9050602002013573ffffffffffffffffffffffffffffffffffffffff1684848481811061083757fe5b9050602002013573ffffffffffffffffffffffffffffffffffffffff16604051808373ffffffffffffffffffffffffffffffffffffffff1673ffffffffffffffffffffffffffffffffffffffff1681526020018273ffffffffffffffffffffffffffffffffffffffff1673ffffffffffffffffffffffffffffffffffffffff1681526020019250505060405180910390a1610a27565b600160009054906101000a900473ffffffffffffffffffffffffffffffffffffffff1673ffffffffffffffffffffffffffffffffffffffff16637d88e1ea86868481811061091757fe5b9050602002013573ffffffffffffffffffffffffffffffffffffffff1685858581811061094057fe5b9050602002013573ffffffffffffffffffffffffffffffffffffffff166040518363ffffffff167c0100000000000000000000000000000000000000000000000000000000028152600401808373ffffffffffffffffffffffffffffffffffffffff1673ffffffffffffffffffffffffffffffffffffffff1681526020018273ffffffffffffffffffffffffffffffffffffffff1673ffffffffffffffffffffffffffffffffffffffff16815260200192505050600060405180830381600087803b158015610a0e57600080fd5b505af1158015610a22573d6000803e3d6000fd5b505050505b80806001019150506106b0565b5050505050565b610a43610d42565b610a4c57600080fd5b80600160006101000a81548173ffffffffffffffffffffffffffffffffffffffff021916908373ffffffffffffffffffffffffffffffffffffffff16021790555050565b610a98610d42565b610aa157600080fd5b600260009054906101000a900473ffffffffffffffffffffffffffffffffffffffff1673ffffffffffffffffffffffffffffffffffffffff16633c736778826040518263ffffffff167c0100000000000000000000000000000000000000000000000000000000028152600401808273ffffffffffffffffffffffffffffffffffffffff1673ffffffffffffffffffffffffffffffffffffffff168152602001915050600060405180830381600087803b158015610b5e57600080fd5b505af1158015610b72573d6000803e3d6000fd5b5050505050565b610b81610d42565b610b8a57600080fd5b80600260006101000a81548173ffffffffffffffffffffffffffffffffffffffff021916908373ffffffffffffffffffffffffffffffffffffffff16021790555050565b600260009054906101000a900473ffffffffffffffffffffffffffffffffffffffff1681565b610bfc610d42565b610c0557600080fd5b80600360006101000a81548173ffffffffffffffffffffffffffffffffffffffff021916908373ffffffffffffffffffffffffffffffffffffffff16021790555050565b610c51610d42565b610c5a57600080fd5b600073ffffffffffffffffffffffffffffffffffffffff166000809054906101000a900473ffffffffffffffffffffffffffffffffffffffff1673ffffffffffffffffffffffffffffffffffffffff167f8be0079c531659141344cd1fd0a4f28419497f9722a3daafe3b4186f6b6457e060405160405180910390a360008060006101000a81548173ffffffffffffffffffffffffffffffffffffffff021916908373ffffffffffffffffffffffffffffffffffffffff160217905550565b60008060009054906101000a900473ffffffffffffffffffffffffffffffffffffffff16905090565b60008060009054906101000a900473ffffffffffffffffffffffffffffffffffffffff1673ffffffffffffffffffffffffffffffffffffffff163373ffffffffffffffffffffffffffffffffffffffff1614905090565b600360009054906101000a900473ffffffffffffffffffffffffffffffffffffffff1673ffffffffffffffffffffffffffffffffffffffff163373ffffffffffffffffffffffffffffffffffffffff1614610df357600080fd5b8585905088889050148015610e0d57508383905088889050145b8015610e1e57508181905088889050145b610e2757600080fd5b60008090505b8888905081101561101457600260009054906101000a900473ffffffffffffffffffffffffffffffffffffffff1673ffffffffffffffffffffffffffffffffffffffff16639a43a3148a8a84818110610e8257fe5b9050602002013573ffffffffffffffffffffffffffffffffffffffff16898985818110610eab57fe5b9050602002013573ffffffffffffffffffffffffffffffffffffffff16888886818110610ed457fe5b9050602002013573ffffffffffffffffffffffffffffffffffffffff16878787818110610efd57fe5b905060200201356040518563ffffffff167c0100000000000000000000000000000000000000000000000000000000028152600401808573ffffffffffffffffffffffffffffffffffffffff1673ffffffffffffffffffffffffffffffffffffffff1681526020018473ffffffffffffffffffffffffffffffffffffffff1673ffffffffffffffffffffffffffffffffffffffff1681526020018373ffffffffffffffffffffffffffffffffffffffff1673ffffffffffffffffffffffffffffffffffffffff168152602001828152602001945050505050600060405180830381600087803b158015610fef57600080fd5b505af1158015611003573d6000803e3d6000fd5b505050508080600101915050610e2d565b505050505050505050565b611027610d42565b61103057600080fd5b8073ffffffffffffffffffffffffffffffffffffffff1663b397657d6040518163ffffffff167c0100000000000000000000000000000000000000000000000000000000028152600401600060405180830381600087803b15801561109457600080fd5b505af11580156110a8573d6000803e3d6000fd5b5050505050565b600160009054906101000a900473ffffffffffffffffffffffffffffffffffffffff1681565b6110dd610d42565b6110e657600080fd5b6110ef81611118565b50565b600360009054906101000a900473ffffffffffffffffffffffffffffffffffffffff1681565b600073ffffffffffffffffffffffffffffffffffffffff168173ffffffffffffffffffffffffffffffffffffffff16141561115257600080fd5b8073ffffffffffffffffffffffffffffffffffffffff166000809054906101000a900473ffffffffffffffffffffffffffffffffffffffff1673ffffffffffffffffffffffffffffffffffffffff167f8be0079c531659141344cd1fd0a4f28419497f9722a3daafe3b4186f6b6457e060405160405180910390a3806000806101000a81548173ffffffffffffffffffffffffffffffffffffffff021916908373ffffffffffffffffffffffffffffffffffffffff1602179055505056fea165627a7a72305820565ff0711c3b993794e1240784b408374cbb200dc4b8a4aa584b0de82b0f39c70029",
  "source": "pragma solidity 0.5.7;\n\nimport \"openzeppelin-solidity/contracts/ownership/Ownable.sol\";\nimport \"./AccountRegistryLogic.sol\";\nimport \"./AttestationLogic.sol\";\nimport \"./TokenEscrowMarketplace.sol\";\nimport \"./Initializable.sol\";\n\ncontract BatchInitializer is Ownable{\n\n  AccountRegistryLogic public registryLogic;\n  AttestationLogic public attestationLogic;\n  address public admin;\n\n  constructor(\n    AttestationLogic _attestationLogic,\n    AccountRegistryLogic _registryLogic\n    ) public {\n    attestationLogic = _attestationLogic;\n    registryLogic = _registryLogic;\n    admin = msg.sender;\n  }\n\n  event linkSkipped(address currentAddress, address newAddress);\n\n  /**\n   * @dev Restricted to admin\n   */\n  modifier onlyAdmin {\n    require(msg.sender == admin);\n    _;\n  }\n\n  /**\n   * @notice Change the address of the admin, who has the privilege to create new accounts\n   * @dev Restricted to AccountRegistry owner and new admin address cannot be 0x0\n   * @param _newAdmin Address of new admin\n   */\n  function setAdmin(address _newAdmin) external onlyOwner {\n    admin = _newAdmin;\n  }\n\n  function setRegistryLogic(AccountRegistryLogic _newRegistryLogic) external onlyOwner {\n    registryLogic = _newRegistryLogic;\n  }\n\n  function setAttestationLogic(AttestationLogic _newAttestationLogic) external onlyOwner {\n    attestationLogic = _newAttestationLogic;\n  }\n\n  function setTokenEscrowMarketplace(TokenEscrowMarketplace _newMarketplace) external onlyOwner {\n    attestationLogic.setTokenEscrowMarketplace(_newMarketplace);\n  }\n\n  function endInitialization(Initializable _initializable) external onlyOwner {\n    _initializable.endInitialization();\n  }\n\n  function batchLinkAddresses(address[] calldata _currentAddresses, address[] calldata _newAddresses) external onlyAdmin {\n    require(_currentAddresses.length == _newAddresses.length);\n    for (uint256 i = 0; i < _currentAddresses.length; i++) {\n      if (registryLogic.linkIds(_newAddresses[i]) > 0) {\n        emit linkSkipped(_currentAddresses[i], _newAddresses[i]);\n      } else {\n        registryLogic.migrateLink(_currentAddresses[i], _newAddresses[i]);\n      }\n    }\n  }\n\n  function batchMigrateAttestations(\n    address[] calldata _requesters,\n    address[] calldata _attesters,\n    address[] calldata _subjects,\n    bytes32[] calldata _dataHashes\n    ) external onlyAdmin {\n    require(\n      _requesters.length == _attesters.length &&\n      _requesters.length == _subjects.length &&\n      _requesters.length == _dataHashes.length\n      );\n    // This loop will fail if args don't all have equal length\n    for (uint256 i = 0; i < _requesters.length; i++) {\n      attestationLogic.migrateAttestation(\n        _requesters[i],\n        _attesters[i],\n        _subjects[i],\n        _dataHashes[i]\n        );\n    }\n  }\n}",
  "sourcePath": "/Users/pierrick/Documents/04-OSS/08-Graph/01-Bloom/graph/contracts/BatchInitializer.sol",
  "compiler": {
    "name": "solc",
    "version": "0.5.7+commit.6da8b019.Emscripten.clang"
  },
  "schemaVersion": "3.0.9",
  "updatedAt": "2019-05-21T20:40:56.763Z",
  "devdoc": {
    "methods": {
      "isOwner()": {
        "return": "true if `msg.sender` is the owner of the contract."
      },
      "owner()": {
        "return": "the address of the owner."
      },
      "renounceOwnership()": {
        "details": "Allows the current owner to relinquish control of the contract. It will not be possible to call the functions with the `onlyOwner` modifier anymore."
      },
      "setAdmin(address)": {
        "details": "Restricted to AccountRegistry owner and new admin address cannot be 0x0",
        "params": {
          "_newAdmin": "Address of new admin"
        }
      },
      "transferOwnership(address)": {
        "details": "Allows the current owner to transfer control of the contract to a newOwner.",
        "params": {
          "newOwner": "The address to transfer ownership to."
        }
      }
    }
  },
  "userdoc": {
    "methods": {
      "renounceOwnership()": {
        "notice": "Renouncing ownership will leave the contract without an owner, thereby removing any functionality that is only available to the owner."
      },
      "setAdmin(address)": {
        "notice": "Change the address of the admin, who has the privilege to create new accounts"
      }
    }
  }
}