{
  "contractName": "Initializable",
  "abi": [
    {
      "constant": true,
      "inputs": [],
      "name": "initializing",
      "outputs": [
        {
          "name": "",
          "type": "bool"
        }
      ],
      "payable": false,
      "stateMutability": "view",
      "type": "function"
    },
    {
      "constant": true,
      "inputs": [],
      "name": "initializer",
      "outputs": [
        {
          "name": "",
          "type": "address"
        }
      ],
      "payable": false,
      "stateMutability": "view",
      "type": "function"
    },
    {
      "inputs": [
        {
          "name": "_initializer",
          "type": "address"
        }
      ],
      "payable": false,
      "stateMutability": "nonpayable",
      "type": "constructor"
    },
    {
      "anonymous": false,
      "inputs": [],
      "name": "InitializationEnded",
      "type": "event"
    },
    {
      "constant": false,
      "inputs": [],
      "name": "endInitialization",
      "outputs": [],
      "payable": false,
      "stateMutability": "nonpayable",
      "type": "function"
    }
  ],
  "bytecode": "0x608060405234801561001057600080fd5b506040516020806103928339810180604052602081101561003057600080fd5b8101908080519060200190929190505050806000806101000a81548173ffffffffffffffffffffffffffffffffffffffff021916908373ffffffffffffffffffffffffffffffffffffffff1602179055506001600060146101000a81548160ff021916908315150217905550506102e6806100ac6000396000f3fe608060405234801561001057600080fd5b506004361061005e576000357c0100000000000000000000000000000000000000000000000000000000900480632599f159146100635780639ce110d714610085578063b397657d146100cf575b600080fd5b61006b6100d9565b604051808215151515815260200191505060405180910390f35b61008d6100ec565b604051808273ffffffffffffffffffffffffffffffffffffffff1673ffffffffffffffffffffffffffffffffffffffff16815260200191505060405180910390f35b6100d7610111565b005b600060149054906101000a900460ff1681565b6000809054906101000a900473ffffffffffffffffffffffffffffffffffffffff1681565b6000809054906101000a900473ffffffffffffffffffffffffffffffffffffffff1673ffffffffffffffffffffffffffffffffffffffff163373ffffffffffffffffffffffffffffffffffffffff16146101b6576040517f08c379a00000000000000000000000000000000000000000000000000000000081526004018080602001828103825260288152602001806102646028913960400191505060405180910390fd5b600060149054906101000a900460ff1661021b576040517f08c379a000000000000000000000000000000000000000000000000000000000815260040180806020018281038252602f81526020018061028c602f913960400191505060405180910390fd5b60008060146101000a81548160ff0219169083151502179055507f0cabb9c05f9eeeadb6765f175642f19876b512ba15100b1391420b714b0c3d0060405160405180910390a156fe4d6574686f642063616e206f6e6c792062652063616c6c656420627920696e697469616c697a65724d6574686f642063616e206f6e6c792062652063616c6c656420647572696e6720696e697469616c697a6174696f6ea165627a7a72305820f6c98c45630d65ba53a84b7a1794d12e38e98f059feb8c961bb385257691fd430029",
  "source": "pragma solidity 0.5.7;\n\n/**\n * @title Initializable\n * @dev The Initializable contract has an initializer address, and provides basic authorization control\n * only while in initialization mode. Once changed to production mode the inializer loses authority\n */\ncontract Initializable {\n  address public initializer;\n  bool public initializing;\n\n  event InitializationEnded();\n\n  /**\n   * @dev The Initializable constructor sets the initializer to the provided address\n   */\n  constructor(address _initializer) public {\n    initializer = _initializer;\n    initializing = true;\n  }\n\n  /**\n   * @dev Throws if called by any account other than the owner.\n   */\n  modifier onlyDuringInitialization() {\n    require(msg.sender == initializer, 'Method can only be called by initializer');\n    require(initializing, 'Method can only be called during initialization');\n    _;\n  }\n\n  /**\n   * @dev Allows the initializer to end the initialization period\n   */\n  function endInitialization() public onlyDuringInitialization {\n    initializing = false;\n    emit InitializationEnded();\n  }\n\n}\n",
  "sourcePath": "/Users/pierrick/Documents/04-OSS/08-Graph/01-Bloom/graph/contracts/Initializable.sol",
  "compiler": {
    "name": "solc",
    "version": "0.5.7+commit.6da8b019.Emscripten.clang"
  },
  "schemaVersion": "3.0.9",
  "updatedAt": "2019-05-09T12:18:35.654Z",
  "devdoc": {
    "details": "The Initializable contract has an initializer address, and provides basic authorization control only while in initialization mode. Once changed to production mode the inializer loses authority",
    "methods": {
      "constructor": {
        "details": "The Initializable constructor sets the initializer to the provided address"
      },
      "endInitialization()": {
        "details": "Allows the initializer to end the initialization period"
      }
    },
    "title": "Initializable"
  },
  "userdoc": {
    "methods": {}
  }
}