{
  "contractName": "Poll",
  "abi": [
    {
      "constant": true,
      "inputs": [],
      "name": "endTime",
      "outputs": [
        {
          "name": "",
          "type": "uint256"
        }
      ],
      "payable": false,
      "stateMutability": "view",
      "type": "function"
    },
    {
      "constant": true,
      "inputs": [],
      "name": "startTime",
      "outputs": [
        {
          "name": "",
          "type": "uint256"
        }
      ],
      "payable": false,
      "stateMutability": "view",
      "type": "function"
    },
    {
      "constant": true,
      "inputs": [],
      "name": "pollDataMultihash",
      "outputs": [
        {
          "name": "",
          "type": "bytes"
        }
      ],
      "payable": false,
      "stateMutability": "view",
      "type": "function"
    },
    {
      "constant": true,
      "inputs": [],
      "name": "author",
      "outputs": [
        {
          "name": "",
          "type": "address"
        }
      ],
      "payable": false,
      "stateMutability": "view",
      "type": "function"
    },
    {
      "constant": true,
      "inputs": [],
      "name": "numChoices",
      "outputs": [
        {
          "name": "",
          "type": "uint16"
        }
      ],
      "payable": false,
      "stateMutability": "view",
      "type": "function"
    },
    {
      "constant": true,
      "inputs": [
        {
          "name": "",
          "type": "bytes32"
        }
      ],
      "name": "usedSignatures",
      "outputs": [
        {
          "name": "",
          "type": "bool"
        }
      ],
      "payable": false,
      "stateMutability": "view",
      "type": "function"
    },
    {
      "inputs": [
        {
          "name": "_name",
          "type": "string"
        },
        {
          "name": "_chainId",
          "type": "uint256"
        },
        {
          "name": "_ipfsHash",
          "type": "bytes"
        },
        {
          "name": "_numChoices",
          "type": "uint16"
        },
        {
          "name": "_startTime",
          "type": "uint256"
        },
        {
          "name": "_endTime",
          "type": "uint256"
        },
        {
          "name": "_author",
          "type": "address"
        }
      ],
      "payable": false,
      "stateMutability": "nonpayable",
      "type": "constructor"
    },
    {
      "anonymous": false,
      "inputs": [
        {
          "indexed": true,
          "name": "voter",
          "type": "address"
        },
        {
          "indexed": true,
          "name": "choice",
          "type": "uint16"
        }
      ],
      "name": "VoteCast",
      "type": "event"
    },
    {
      "constant": false,
      "inputs": [
        {
          "name": "_choice",
          "type": "uint16"
        }
      ],
      "name": "vote",
      "outputs": [],
      "payable": false,
      "stateMutability": "nonpayable",
      "type": "function"
    },
    {
      "constant": false,
      "inputs": [
        {
          "name": "_choice",
          "type": "uint16"
        },
        {
          "name": "_voter",
          "type": "address"
        },
        {
          "name": "_nonce",
          "type": "bytes32"
        },
        {
          "name": "_delegationSig",
          "type": "bytes"
        }
      ],
      "name": "voteFor",
      "outputs": [],
      "payable": false,
      "stateMutability": "nonpayable",
      "type": "function"
    }
  ],
  "bytecode": "0x60806040523480156200001157600080fd5b5060405162000ebf38038062000ebf833981018060405260e08110156200003757600080fd5b8101908080516401000000008111156200005057600080fd5b828101905060208101848111156200006757600080fd5b81518560018202830111640100000000821117156200008557600080fd5b5050929190602001805190602001909291908051640100000000811115620000ac57600080fd5b82810190506020810184811115620000c357600080fd5b8151856001820283011164010000000082111715620000e157600080fd5b505092919060200180519060200190929190805190602001909291908051906020019092919080519060200190929190505050866040518060400160405280600181526020017f3200000000000000000000000000000000000000000000000000000000000000815250876200019c60405180608001604052808581526020018481526020018381526020013073ffffffffffffffffffffffffffffffffffffffff1681525062000275640100000000026401000000009004565b600181905550505050428310158015620001b557508282115b620001bf57600080fd5b620001d98562000328640100000000026401000000009004565b620001e357600080fd5b83600360006101000a81548161ffff021916908361ffff160217905550826004819055508160058190555084600290805190602001906200022692919062000357565b5080600660006101000a81548173ffffffffffffffffffffffffffffffffffffffff021916908373ffffffffffffffffffffffffffffffffffffffff1602179055505050505050505062000406565b6000604051808062000e6d605291396052019050604051809103902082600001518051906020012083602001518051906020012084604001518560600151604051602001808681526020018581526020018481526020018381526020018273ffffffffffffffffffffffffffffffffffffffff1673ffffffffffffffffffffffffffffffffffffffff16815260200195505050505050604051602081830303815290604052805190602001209050919050565b600060028251116200033957600080fd5b6000602183015160001a90506002810160ff16835114915050919050565b828054600181600116156101000203166002900490600052602060002090601f016020900481019282601f106200039a57805160ff1916838001178555620003cb565b82800160010185558215620003cb579182015b82811115620003ca578251825591602001919060010190620003ad565b5b509050620003da9190620003de565b5090565b6200040391905b80821115620003ff576000816000905550600101620003e5565b5090565b90565b610a5780620004166000396000f3fe608060405234801561001057600080fd5b50600436106100a5576000357c010000000000000000000000000000000000000000000000000000000090048063a6c3e6b911610078578063a6c3e6b91461021a578063a9092c1114610264578063ddb6e1161461028a578063f978fd61146102bc576100a5565b80631066cd3c146100aa5780633197cbb61461015b57806378e97925146101795780638bb3684814610197575b600080fd5b610159600480360360808110156100c057600080fd5b81019080803561ffff169060200190929190803573ffffffffffffffffffffffffffffffffffffffff169060200190929190803590602001909291908035906020019064010000000081111561011557600080fd5b82018360208201111561012757600080fd5b8035906020019184600183028401116401000000008311171561014957600080fd5b9091929391929390505050610302565b005b610163610363565b6040518082815260200191505060405180910390f35b610181610369565b6040518082815260200191505060405180910390f35b61019f61036f565b6040518080602001828103825283818151815260200191508051906020019080838360005b838110156101df5780820151818401526020810190506101c4565b50505050905090810190601f16801561020c5780820380516001836020036101000a031916815260200191505b509250505060405180910390f35b61022261040d565b604051808273ffffffffffffffffffffffffffffffffffffffff1673ffffffffffffffffffffffffffffffffffffffff16815260200191505060405180910390f35b61026c610433565b604051808261ffff1661ffff16815260200191505060405180910390f35b6102ba600480360360208110156102a057600080fd5b81019080803561ffff169060200190929190505050610447565b005b6102e8600480360360208110156102d257600080fd5b8101908080359060200190929190505050610454565b604051808215151515815260200191505060405180910390f35b61035285858585858080601f016020809104026020016040519081016040528093929190818152602001838380828437600081840152601f19601f82011690508083019250505050505050610474565b61035c858561053f565b5050505050565b60055481565b60045481565b60028054600181600116156101000203166002900480601f0160208091040260200160405190810160405280929190818152602001828054600181600116156101000203166002900480156104055780601f106103da57610100808354040283529160200191610405565b820191906000526020600020905b8154815290600101906020018083116103e857829003601f168201915b505050505081565b600660009054906101000a900473ffffffffffffffffffffffffffffffffffffffff1681565b600360009054906101000a900461ffff1681565b610451813361053f565b50565b60006020528060005260406000206000915054906101000a900460ff1681565b6000610482858585306105dd565b905061048e818361069a565b73ffffffffffffffffffffffffffffffffffffffff168473ffffffffffffffffffffffffffffffffffffffff161461052e576040517f08c379a000000000000000000000000000000000000000000000000000000000815260040180806020018281038252600e8152602001807f496e76616c6964207369676e657200000000000000000000000000000000000081525060200191505060405180910390fd5b61053881856106ed565b5050505050565b600454421015801561055357506005544211155b61055c57600080fd5b600360009054906101000a900461ffff1661ffff168261ffff1611158015610588575060008261ffff16115b61059157600080fd5b8161ffff168173ffffffffffffffffffffffffffffffffffffffff167f2fed3c9ea3d003e94f3c55c5c6ae89aaaee93e8f058f0565d089c3b32b5b328660405160405180910390a35050565b600060015461063b60405180608001604052808861ffff1681526020018773ffffffffffffffffffffffffffffffffffffffff1681526020018681526020018573ffffffffffffffffffffffffffffffffffffffff1681525061080f565b60405160200180807f190100000000000000000000000000000000000000000000000000000000000081525060020183815260200182815260200192505050604051602081830303815290604052805190602001209050949350505050565b6000806106a784846108e7565b9050600073ffffffffffffffffffffffffffffffffffffffff168173ffffffffffffffffffffffffffffffffffffffff1614156106e357600080fd5b8091505092915050565b60008282604051602001808381526020018273ffffffffffffffffffffffffffffffffffffffff1673ffffffffffffffffffffffffffffffffffffffff1681526020019250505060405160208183030381529060405280519060200120905060008082815260200190815260200160002060009054906101000a900460ff16156107df576040517f08c379a00000000000000000000000000000000000000000000000000000000081526004018080602001828103825260148152602001807f5369676e6174757265206e6f7420756e6971756500000000000000000000000081525060200191505060405180910390fd5b600160008083815260200190815260200160002060006101000a81548160ff021916908315150217905550505050565b600060405180806109ed603f9139603f01905060405180910390208260000151836020015184604001518560600151604051602001808681526020018561ffff1661ffff1681526020018473ffffffffffffffffffffffffffffffffffffffff1673ffffffffffffffffffffffffffffffffffffffff1681526020018381526020018273ffffffffffffffffffffffffffffffffffffffff1673ffffffffffffffffffffffffffffffffffffffff16815260200195505050505050604051602081830303815290604052805190602001209050919050565b600060418251146108fb57600090506109e6565b60008060006020850151925060408501519150606085015160001a90507f7fffffffffffffffffffffffffffffff5d576e7357a4501ddfe92f46681b20a08260019004111561095057600093505050506109e6565b601b8160ff16141580156109685750601c8160ff1614155b1561097957600093505050506109e6565b60018682858560405160008152602001604052604051808581526020018460ff1660ff1681526020018381526020018281526020019450505050506020604051602081039080840390855afa1580156109d6573d6000803e3d6000fd5b5050506020604051035193505050505b9291505056fe566f7465466f722875696e7431362063686f6963652c6164647265737320766f7465722c62797465733332206e6f6e63652c6164647265737320706f6c6c29a165627a7a7230582064cb28340e8b6cd47d6d94c53daf0948cff6b217a7036ee16a9dec0b1c6cff390029454950373132446f6d61696e28737472696e67206e616d652c737472696e672076657273696f6e2c75696e7432353620636861696e49642c6164647265737320766572696679696e67436f6e747261637429",
  "source": "pragma solidity 0.5.7;\n\nimport \"./VotingCenter.sol\";\nimport \"./DependentOnIPFS.sol\";\nimport \"./SigningLogic.sol\";\n\n/**\n * @title Voteable poll with associated IPFS data\n *\n * A poll records votes on a variable number of choices. A poll specifies\n * a window during which users can vote. Information like the poll title and\n * the descriptions for each option are stored on IPFS.\n */\ncontract Poll is DependentOnIPFS, SigningLogic {\n  // There isn't a way around using time to determine when votes can be cast\n  // solhint-disable not-rely-on-time\n\n  bytes public pollDataMultihash;\n  uint16 public numChoices;\n  uint256 public startTime;\n  uint256 public endTime;\n  address public author;\n\n  event VoteCast(address indexed voter, uint16 indexed choice);\n\n  constructor(\n    string memory _name,\n    uint256 _chainId,\n    bytes memory _ipfsHash,\n    uint16 _numChoices,\n    uint256 _startTime,\n    uint256 _endTime,\n    address _author\n  ) public SigningLogic(_name, \"2\", _chainId) {\n    require(_startTime >= now && _endTime > _startTime);\n    require(isValidIPFSMultihash(_ipfsHash));\n\n    numChoices = _numChoices;\n    startTime = _startTime;\n    endTime = _endTime;\n    pollDataMultihash = _ipfsHash;\n    author = _author;\n  }\n\n  function vote(uint16 _choice) external {\n    voteForUser(_choice, msg.sender);\n  }\n\n  function voteFor(uint16 _choice, address _voter, bytes32 _nonce, bytes calldata _delegationSig) external {\n    validateVoteForSig(_choice, _voter, _nonce, _delegationSig);\n    voteForUser(_choice, _voter);\n  }\n\n  function validateVoteForSig(\n    uint16 _choice,\n    address _voter,\n    bytes32 _nonce,\n    bytes memory _delegationSig\n  ) private {\n    bytes32 _signatureDigest = generateVoteForDelegationSchemaHash(_choice, _voter, _nonce, address(this));\n    require(_voter == recoverSigner(_signatureDigest, _delegationSig),\n      \"Invalid signer\"\n      );\n    burnSignatureDigest(_signatureDigest, _voter);\n  }\n\n  /**\n   * @dev Cast or change your vote\n   * @param _choice The index of the option in the corresponding IPFS document.\n   */\n  function voteForUser(uint16 _choice, address _voter) private duringPoll {\n    // Choices are indexed from 1 since the mapping returns 0 for \"no vote cast\"\n    require(_choice <= numChoices && _choice > 0);\n    emit VoteCast(_voter, _choice);\n  }\n\n  modifier duringPoll {\n    require(now >= startTime && now <= endTime);\n    _;\n  }\n\n}\n",
  "sourcePath": "/Users/pierrick/Documents/04-OSS/08-Graph/01-Bloom/graph/contracts/Poll.sol",
  "compiler": {
    "name": "solc",
    "version": "0.5.7+commit.6da8b019.Emscripten.clang"
  },
  "schemaVersion": "3.0.9",
  "updatedAt": "2019-05-21T20:40:56.751Z",
  "devdoc": {
    "methods": {},
    "title": "Voteable poll with associated IPFS data * A poll records votes on a variable number of choices. A poll specifies a window during which users can vote. Information like the poll title and the descriptions for each option are stored on IPFS."
  },
  "userdoc": {
    "methods": {}
  }
}