{
  "contractName": "SigningLogic",
  "abi": [
    {
      "constant": true,
      "inputs": [
        {
          "name": "",
          "type": "bytes32"
        }
      ],
      "name": "usedSignatures",
      "outputs": [
        {
          "name": "",
          "type": "bool"
        }
      ],
      "payable": false,
      "stateMutability": "view",
      "type": "function"
    },
    {
      "inputs": [
        {
          "name": "name",
          "type": "string"
        },
        {
          "name": "version",
          "type": "string"
        },
        {
          "name": "chainId",
          "type": "uint256"
        }
      ],
      "payable": false,
      "stateMutability": "nonpayable",
      "type": "constructor"
    }
  ],
  "bytecode": "0x608060405234801561001057600080fd5b506040516103293803806103298339810180604052606081101561003357600080fd5b81019080805164010000000081111561004b57600080fd5b8281019050602081018481111561006157600080fd5b815185600182028301116401000000008211171561007e57600080fd5b5050929190602001805164010000000081111561009a57600080fd5b828101905060208101848111156100b057600080fd5b81518560018202830111640100000000821117156100cd57600080fd5b50509291906020018051906020019092919050505061013060405180608001604052808581526020018481526020018381526020013073ffffffffffffffffffffffffffffffffffffffff1681525061013e640100000000026401000000009004565b6001819055505050506101f0565b600060405180806102d7605291396052019050604051809103902082600001518051906020012083602001518051906020012084604001518560600151604051602001808681526020018581526020018481526020018381526020018273ffffffffffffffffffffffffffffffffffffffff1673ffffffffffffffffffffffffffffffffffffffff16815260200195505050505050604051602081830303815290604052805190602001209050919050565b60d9806101fe6000396000f3fe6080604052348015600f57600080fd5b50600436106045576000357c010000000000000000000000000000000000000000000000000000000090048063f978fd6114604a575b600080fd5b607360048036036020811015605e57600080fd5b8101908080359060200190929190505050608d565b604051808215151515815260200191505060405180910390f35b60006020528060005260406000206000915054906101000a900460ff168156fea165627a7a72305820cfdf80e7faa846e23d5bada3145180e15f2022b5e091857c5a7d2c3813cd82400029454950373132446f6d61696e28737472696e67206e616d652c737472696e672076657273696f6e2c75696e7432353620636861696e49642c6164647265737320766572696679696e67436f6e747261637429",
  "source": "pragma solidity 0.5.7;\n\nimport \"openzeppelin-solidity/contracts/cryptography/ECDSA.sol\";\n\n/**\n * @title SigningLogic is contract implementing signature recovery from typed data signatures\n * @notice Recovers signatures based on the SignTypedData implementation provided by ethSigUtil\n * @dev This contract is inherited by other contracts.\n */\ncontract SigningLogic {\n\n  // Signatures contain a nonce to make them unique. usedSignatures tracks which signatures\n  //  have been used so they can't be replayed\n  mapping (bytes32 => bool) public usedSignatures;\n\n  function burnSignatureDigest(bytes32 _signatureDigest, address _sender) internal {\n    bytes32 _txDataHash = keccak256(abi.encode(_signatureDigest, _sender));\n    require(!usedSignatures[_txDataHash], \"Signature not unique\");\n    usedSignatures[_txDataHash] = true;\n  }\n\n  bytes32 constant EIP712DOMAIN_TYPEHASH = keccak256(\n    \"EIP712Domain(string name,string version,uint256 chainId,address verifyingContract)\"\n  );\n\n  bytes32 constant ATTESTATION_REQUEST_TYPEHASH = keccak256(\n    \"AttestationRequest(bytes32 dataHash,bytes32 nonce)\"\n  );\n\n  bytes32 constant ADD_ADDRESS_TYPEHASH = keccak256(\n    \"AddAddress(address addressToAdd,bytes32 nonce)\"\n  );\n\n  bytes32 constant REMOVE_ADDRESS_TYPEHASH = keccak256(\n    \"RemoveAddress(address addressToRemove,bytes32 nonce)\"\n  );\n\n  bytes32 constant PAY_TOKENS_TYPEHASH = keccak256(\n    \"PayTokens(address sender,address receiver,uint256 amount,bytes32 nonce)\"\n  );\n\n  bytes32 constant RELEASE_TOKENS_FOR_TYPEHASH = keccak256(\n    \"ReleaseTokensFor(address sender,uint256 amount,bytes32 nonce)\"\n  );\n\n  bytes32 constant ATTEST_FOR_TYPEHASH = keccak256(\n    \"AttestFor(address subject,address requester,uint256 reward,bytes32 dataHash,bytes32 requestNonce)\"\n  );\n\n  bytes32 constant CONTEST_FOR_TYPEHASH = keccak256(\n    \"ContestFor(address requester,uint256 reward,bytes32 requestNonce)\"\n  );\n\n  bytes32 constant REVOKE_ATTESTATION_FOR_TYPEHASH = keccak256(\n    \"RevokeAttestationFor(bytes32 link,bytes32 nonce)\"\n  );\n\n  bytes32 constant VOTE_FOR_TYPEHASH = keccak256(\n    \"VoteFor(uint16 choice,address voter,bytes32 nonce,address poll)\"\n  );\n\n  bytes32 constant LOCKUP_TOKENS_FOR_TYPEHASH = keccak256(\n    \"LockupTokensFor(address sender,uint256 amount,bytes32 nonce)\"\n  );\n\n  bytes32 DOMAIN_SEPARATOR;\n\n  constructor (string memory name, string memory version, uint256 chainId) public {\n    DOMAIN_SEPARATOR = hash(EIP712Domain({\n      name: name,\n      version: version,\n      chainId: chainId,\n      verifyingContract: address(this)\n    }));\n  }\n\n  struct EIP712Domain {\n      string  name;\n      string  version;\n      uint256 chainId;\n      address verifyingContract;\n  }\n\n  function hash(EIP712Domain memory eip712Domain) private pure returns (bytes32) {\n    return keccak256(abi.encode(\n      EIP712DOMAIN_TYPEHASH,\n      keccak256(bytes(eip712Domain.name)),\n      keccak256(bytes(eip712Domain.version)),\n      eip712Domain.chainId,\n      eip712Domain.verifyingContract\n    ));\n  }\n\n  struct AttestationRequest {\n      bytes32 dataHash;\n      bytes32 nonce;\n  }\n\n  function hash(AttestationRequest memory request) private pure returns (bytes32) {\n    return keccak256(abi.encode(\n      ATTESTATION_REQUEST_TYPEHASH,\n      request.dataHash,\n      request.nonce\n    ));\n  }\n\n  struct AddAddress {\n      address addressToAdd;\n      bytes32 nonce;\n  }\n\n  function hash(AddAddress memory request) private pure returns (bytes32) {\n    return keccak256(abi.encode(\n      ADD_ADDRESS_TYPEHASH,\n      request.addressToAdd,\n      request.nonce\n    ));\n  }\n\n  struct RemoveAddress {\n      address addressToRemove;\n      bytes32 nonce;\n  }\n\n  function hash(RemoveAddress memory request) private pure returns (bytes32) {\n    return keccak256(abi.encode(\n      REMOVE_ADDRESS_TYPEHASH,\n      request.addressToRemove,\n      request.nonce\n    ));\n  }\n\n  struct PayTokens {\n      address sender;\n      address receiver;\n      uint256 amount;\n      bytes32 nonce;\n  }\n\n  function hash(PayTokens memory request) private pure returns (bytes32) {\n    return keccak256(abi.encode(\n      PAY_TOKENS_TYPEHASH,\n      request.sender,\n      request.receiver,\n      request.amount,\n      request.nonce\n    ));\n  }\n\n  struct AttestFor {\n      address subject;\n      address requester;\n      uint256 reward;\n      bytes32 dataHash;\n      bytes32 requestNonce;\n  }\n\n  function hash(AttestFor memory request) private pure returns (bytes32) {\n    return keccak256(abi.encode(\n      ATTEST_FOR_TYPEHASH,\n      request.subject,\n      request.requester,\n      request.reward,\n      request.dataHash,\n      request.requestNonce\n    ));\n  }\n\n  struct ContestFor {\n      address requester;\n      uint256 reward;\n      bytes32 requestNonce;\n  }\n\n  function hash(ContestFor memory request) private pure returns (bytes32) {\n    return keccak256(abi.encode(\n      CONTEST_FOR_TYPEHASH,\n      request.requester,\n      request.reward,\n      request.requestNonce\n    ));\n  }\n\n  struct RevokeAttestationFor {\n      bytes32 link;\n      bytes32 nonce;\n  }\n\n  function hash(RevokeAttestationFor memory request) private pure returns (bytes32) {\n    return keccak256(abi.encode(\n      REVOKE_ATTESTATION_FOR_TYPEHASH,\n      request.link,\n      request.nonce\n    ));\n  }\n\n  struct VoteFor {\n      uint16 choice;\n      address voter;\n      bytes32 nonce;\n      address poll;\n  }\n\n  function hash(VoteFor memory request) private pure returns (bytes32) {\n    return keccak256(abi.encode(\n      VOTE_FOR_TYPEHASH,\n      request.choice,\n      request.voter,\n      request.nonce,\n      request.poll\n    ));\n  }\n\n  struct LockupTokensFor {\n    address sender;\n    uint256 amount;\n    bytes32 nonce;\n  }\n\n  function hash(LockupTokensFor memory request) private pure returns (bytes32) {\n    return keccak256(abi.encode(\n      LOCKUP_TOKENS_FOR_TYPEHASH,\n      request.sender,\n      request.amount,\n      request.nonce\n    ));\n  }\n\n  struct ReleaseTokensFor {\n    address sender;\n    uint256 amount;\n    bytes32 nonce;\n  }\n\n  function hash(ReleaseTokensFor memory request) private pure returns (bytes32) {\n    return keccak256(abi.encode(\n      RELEASE_TOKENS_FOR_TYPEHASH,\n      request.sender,\n      request.amount,\n      request.nonce\n    ));\n  }\n\n  function generateRequestAttestationSchemaHash(\n    bytes32 _dataHash,\n    bytes32 _nonce\n  ) internal view returns (bytes32) {\n    return keccak256(\n      abi.encodePacked(\n        \"\\x19\\x01\",\n        DOMAIN_SEPARATOR,\n        hash(AttestationRequest(\n          _dataHash,\n          _nonce\n        ))\n      )\n      );\n  }\n\n  function generateAddAddressSchemaHash(\n    address _addressToAdd,\n    bytes32 _nonce\n  ) internal view returns (bytes32) {\n    return keccak256(\n      abi.encodePacked(\n        \"\\x19\\x01\",\n        DOMAIN_SEPARATOR,\n        hash(AddAddress(\n          _addressToAdd,\n          _nonce\n        ))\n      )\n      );\n  }\n\n  function generateRemoveAddressSchemaHash(\n    address _addressToRemove,\n    bytes32 _nonce\n  ) internal view returns (bytes32) {\n    return keccak256(\n      abi.encodePacked(\n        \"\\x19\\x01\",\n        DOMAIN_SEPARATOR,\n        hash(RemoveAddress(\n          _addressToRemove,\n          _nonce\n        ))\n      )\n      );\n  }\n\n  function generatePayTokensSchemaHash(\n    address _sender,\n    address _receiver,\n    uint256 _amount,\n    bytes32 _nonce\n  ) internal view returns (bytes32) {\n    return keccak256(\n      abi.encodePacked(\n        \"\\x19\\x01\",\n        DOMAIN_SEPARATOR,\n        hash(PayTokens(\n          _sender,\n          _receiver,\n          _amount,\n          _nonce\n        ))\n      )\n      );\n  }\n\n  function generateAttestForDelegationSchemaHash(\n    address _subject,\n    address _requester,\n    uint256 _reward,\n    bytes32 _dataHash,\n    bytes32 _requestNonce\n  ) internal view returns (bytes32) {\n    return keccak256(\n      abi.encodePacked(\n        \"\\x19\\x01\",\n        DOMAIN_SEPARATOR,\n        hash(AttestFor(\n          _subject,\n          _requester,\n          _reward,\n          _dataHash,\n          _requestNonce\n        ))\n      )\n      );\n  }\n\n  function generateContestForDelegationSchemaHash(\n    address _requester,\n    uint256 _reward,\n    bytes32 _requestNonce\n  ) internal view returns (bytes32) {\n    return keccak256(\n      abi.encodePacked(\n        \"\\x19\\x01\",\n        DOMAIN_SEPARATOR,\n        hash(ContestFor(\n          _requester,\n          _reward,\n          _requestNonce\n        ))\n      )\n      );\n  }\n\n  function generateRevokeAttestationForDelegationSchemaHash(\n    bytes32 _link,\n    bytes32 _nonce\n  ) internal view returns (bytes32) {\n    return keccak256(\n      abi.encodePacked(\n        \"\\x19\\x01\",\n        DOMAIN_SEPARATOR,\n        hash(RevokeAttestationFor(\n          _link,\n          _nonce\n        ))\n      )\n      );\n  }\n\n  function generateVoteForDelegationSchemaHash(\n    uint16 _choice,\n    address _voter,\n    bytes32 _nonce,\n    address _poll\n  ) internal view returns (bytes32) {\n    return keccak256(\n      abi.encodePacked(\n        \"\\x19\\x01\",\n        DOMAIN_SEPARATOR,\n        hash(VoteFor(\n          _choice,\n          _voter,\n          _nonce,\n          _poll\n        ))\n      )\n      );\n  }\n\n  function generateLockupTokensDelegationSchemaHash(\n    address _sender,\n    uint256 _amount,\n    bytes32 _nonce\n  ) internal view returns (bytes32) {\n    return keccak256(\n      abi.encodePacked(\n        \"\\x19\\x01\",\n        DOMAIN_SEPARATOR,\n        hash(LockupTokensFor(\n          _sender,\n          _amount,\n          _nonce\n        ))\n      )\n      );\n  }\n\n  function generateReleaseTokensDelegationSchemaHash(\n    address _sender,\n    uint256 _amount,\n    bytes32 _nonce\n  ) internal view returns (bytes32) {\n    return keccak256(\n      abi.encodePacked(\n        \"\\x19\\x01\",\n        DOMAIN_SEPARATOR,\n        hash(ReleaseTokensFor(\n          _sender,\n          _amount,\n          _nonce\n        ))\n      )\n      );\n  }\n\n  function recoverSigner(bytes32 _hash, bytes memory _sig) internal pure returns (address) {\n    address signer = ECDSA.recover(_hash, _sig);\n    require(signer != address(0));\n\n    return signer;\n  }\n}\n",
  "sourcePath": "/Users/pierrick/Documents/04-OSS/08-Graph/01-Bloom/graph/contracts/SigningLogic.sol",
  "compiler": {
    "name": "solc",
    "version": "0.5.7+commit.6da8b019.Emscripten.clang"
  },
  "schemaVersion": "3.0.9",
  "updatedAt": "2019-05-21T20:40:56.675Z",
  "devdoc": {
    "details": "This contract is inherited by other contracts.",
    "methods": {},
    "title": "SigningLogic is contract implementing signature recovery from typed data signatures"
  },
  "userdoc": {
    "methods": {},
    "notice": "Recovers signatures based on the SignTypedData implementation provided by ethSigUtil"
  }
}