{
  "contractName": "TokenEscrowMarketplace",
  "abi": [
    {
      "constant": true,
      "inputs": [],
      "name": "attestationLogic",
      "outputs": [
        {
          "name": "",
          "type": "address"
        }
      ],
      "payable": false,
      "stateMutability": "view",
      "type": "function"
    },
    {
      "constant": true,
      "inputs": [
        {
          "name": "",
          "type": "address"
        }
      ],
      "name": "tokenEscrow",
      "outputs": [
        {
          "name": "",
          "type": "uint256"
        }
      ],
      "payable": false,
      "stateMutability": "view",
      "type": "function"
    },
    {
      "constant": true,
      "inputs": [
        {
          "name": "",
          "type": "bytes32"
        }
      ],
      "name": "usedSignatures",
      "outputs": [
        {
          "name": "",
          "type": "bool"
        }
      ],
      "payable": false,
      "stateMutability": "view",
      "type": "function"
    },
    {
      "constant": true,
      "inputs": [],
      "name": "token",
      "outputs": [
        {
          "name": "",
          "type": "address"
        }
      ],
      "payable": false,
      "stateMutability": "view",
      "type": "function"
    },
    {
      "inputs": [
        {
          "name": "_token",
          "type": "address"
        },
        {
          "name": "_attestationLogic",
          "type": "address"
        }
      ],
      "payable": false,
      "stateMutability": "nonpayable",
      "type": "constructor"
    },
    {
      "anonymous": false,
      "inputs": [
        {
          "indexed": false,
          "name": "escrowPayer",
          "type": "address"
        },
        {
          "indexed": false,
          "name": "amount",
          "type": "uint256"
        }
      ],
      "name": "TokenMarketplaceWithdrawal",
      "type": "event"
    },
    {
      "anonymous": false,
      "inputs": [
        {
          "indexed": false,
          "name": "escrowPayer",
          "type": "address"
        },
        {
          "indexed": false,
          "name": "escrowPayee",
          "type": "address"
        },
        {
          "indexed": false,
          "name": "amount",
          "type": "uint256"
        }
      ],
      "name": "TokenMarketplaceEscrowPayment",
      "type": "event"
    },
    {
      "anonymous": false,
      "inputs": [
        {
          "indexed": false,
          "name": "escrowPayer",
          "type": "address"
        },
        {
          "indexed": false,
          "name": "amount",
          "type": "uint256"
        }
      ],
      "name": "TokenMarketplaceDeposit",
      "type": "event"
    },
    {
      "constant": false,
      "inputs": [
        {
          "name": "_sender",
          "type": "address"
        },
        {
          "name": "_amount",
          "type": "uint256"
        },
        {
          "name": "_nonce",
          "type": "bytes32"
        },
        {
          "name": "_delegationSig",
          "type": "bytes"
        }
      ],
      "name": "moveTokensToEscrowLockupFor",
      "outputs": [],
      "payable": false,
      "stateMutability": "nonpayable",
      "type": "function"
    },
    {
      "constant": false,
      "inputs": [
        {
          "name": "_amount",
          "type": "uint256"
        }
      ],
      "name": "moveTokensToEscrowLockup",
      "outputs": [],
      "payable": false,
      "stateMutability": "nonpayable",
      "type": "function"
    },
    {
      "constant": false,
      "inputs": [
        {
          "name": "_sender",
          "type": "address"
        },
        {
          "name": "_amount",
          "type": "uint256"
        },
        {
          "name": "_nonce",
          "type": "bytes32"
        },
        {
          "name": "_delegationSig",
          "type": "bytes"
        }
      ],
      "name": "releaseTokensFromEscrowFor",
      "outputs": [],
      "payable": false,
      "stateMutability": "nonpayable",
      "type": "function"
    },
    {
      "constant": false,
      "inputs": [
        {
          "name": "_amount",
          "type": "uint256"
        }
      ],
      "name": "releaseTokensFromEscrow",
      "outputs": [],
      "payable": false,
      "stateMutability": "nonpayable",
      "type": "function"
    },
    {
      "constant": false,
      "inputs": [
        {
          "name": "_payer",
          "type": "address"
        },
        {
          "name": "_receiver",
          "type": "address"
        },
        {
          "name": "_amount",
          "type": "uint256"
        },
        {
          "name": "_nonce",
          "type": "bytes32"
        },
        {
          "name": "_paymentSig",
          "type": "bytes"
        }
      ],
      "name": "requestTokenPayment",
      "outputs": [],
      "payable": false,
      "stateMutability": "nonpayable",
      "type": "function"
    }
  ],
  "bytecode": "0x608060405234801561001057600080fd5b50604051604080611a808339810180604052604081101561003057600080fd5b8101908080519060200190929190805190602001909291905050506040518060400160405280601e81526020017f426c6f6f6d20546f6b656e20457363726f77204d61726b6574706c61636500008152506040518060400160405280600181526020017f3200000000000000000000000000000000000000000000000000000000000000815250600161010760405180608001604052808581526020018481526020018381526020013073ffffffffffffffffffffffffffffffffffffffff16815250610199640100000000026401000000009004565b60018190555050505081600460006101000a81548173ffffffffffffffffffffffffffffffffffffffff021916908373ffffffffffffffffffffffffffffffffffffffff16021790555080600260006101000a81548173ffffffffffffffffffffffffffffffffffffffff021916908373ffffffffffffffffffffffffffffffffffffffff160217905550505061024b565b60006040518080611a2e605291396052019050604051809103902082600001518051906020012083602001518051906020012084604001518560600151604051602001808681526020018581526020018481526020018381526020018273ffffffffffffffffffffffffffffffffffffffff1673ffffffffffffffffffffffffffffffffffffffff16815260200195505050505050604051602081830303815290604052805190602001209050919050565b6117d48061025a6000396000f3fe608060405234801561001057600080fd5b50600436106100b0576000357c0100000000000000000000000000000000000000000000000000000000900480635ed5eb50116100835780635ed5eb501461023257806372475f2d146102ff578063cba5edf81461032d578063f978fd61146103da578063fc0c546a14610420576100b0565b80630944018f146100b55780633d0327f41461016257806349df8a46146101ac578063586b8e3b14610204575b600080fd5b610160600480360360808110156100cb57600080fd5b81019080803573ffffffffffffffffffffffffffffffffffffffff16906020019092919080359060200190929190803590602001909291908035906020019064010000000081111561011c57600080fd5b82018360208201111561012e57600080fd5b8035906020019184600183028401116401000000008311171561015057600080fd5b909192939192939050505061046a565b005b61016a6104cb565b604051808273ffffffffffffffffffffffffffffffffffffffff1673ffffffffffffffffffffffffffffffffffffffff16815260200191505060405180910390f35b6101ee600480360360208110156101c257600080fd5b81019080803573ffffffffffffffffffffffffffffffffffffffff1690602001909291905050506104f1565b6040518082815260200191505060405180910390f35b6102306004803603602081101561021a57600080fd5b8101908080359060200190929190505050610509565b005b6102fd600480360360a081101561024857600080fd5b81019080803573ffffffffffffffffffffffffffffffffffffffff169060200190929190803573ffffffffffffffffffffffffffffffffffffffff1690602001909291908035906020019092919080359060200190929190803590602001906401000000008111156102b957600080fd5b8201836020820111156102cb57600080fd5b803590602001918460018302840111640100000000831117156102ed57600080fd5b9091929391929390505050610516565b005b61032b6004803603602081101561031557600080fd5b8101908080359060200190929190505050610673565b005b6103d86004803603608081101561034357600080fd5b81019080803573ffffffffffffffffffffffffffffffffffffffff16906020019092919080359060200190929190803590602001909291908035906020019064010000000081111561039457600080fd5b8201836020820111156103a657600080fd5b803590602001918460018302840111640100000000831117156103c857600080fd5b9091929391929390505050610680565b005b610406600480360360208110156103f057600080fd5b81019080803590602001909291905050506106e1565b604051808215151515815260200191505060405180910390f35b610428610701565b604051808273ffffffffffffffffffffffffffffffffffffffff1673ffffffffffffffffffffffffffffffffffffffff16815260200191505060405180910390f35b6104ba85858585858080601f016020809104026020016040519081016040528093929190818152602001838380828437600081840152601f19601f82011690508083019250505050505050610727565b6104c485856107f1565b5050505050565b600260009054906101000a900473ffffffffffffffffffffffffffffffffffffffff1681565b60036020528060005260406000206000915090505481565b610513338261084e565b50565b600260009054906101000a900473ffffffffffffffffffffffffffffffffffffffff1673ffffffffffffffffffffffffffffffffffffffff163373ffffffffffffffffffffffffffffffffffffffff161461057057600080fd5b6105c18686868686868080601f016020809104026020016040519081016040528093929190818152602001838380828437600081840152601f19601f82011690508083019250505050505050610914565b6105cc8686866109e0565b7fe7d9dd378b7eaab790021318bf0b7316cc12bd7132735ff85ba74f7af1b2d4b7868686604051808473ffffffffffffffffffffffffffffffffffffffff1673ffffffffffffffffffffffffffffffffffffffff1681526020018373ffffffffffffffffffffffffffffffffffffffff1673ffffffffffffffffffffffffffffffffffffffff168152602001828152602001935050505060405180910390a1505050505050565b61067d33826107f1565b50565b6106d085858585858080601f016020809104026020016040519081016040528093929190818152602001838380828437600081840152601f19601f82011690508083019250505050505050610a3c565b6106da858561084e565b5050505050565b60006020528060005260406000206000915054906101000a900460ff1681565b600460009054906101000a900473ffffffffffffffffffffffffffffffffffffffff1681565b6000610734858585610b06565b90506107408183610ba2565b73ffffffffffffffffffffffffffffffffffffffff168573ffffffffffffffffffffffffffffffffffffffff16146107e0576040517f08c379a000000000000000000000000000000000000000000000000000000000815260040180806020018281038252601e8152602001807f496e76616c6964204c6f636b7570546f6b656e73205369676e6174757265000081525060200191505060405180910390fd5b6107ea8186610bf5565b5050505050565b610840823083600460009054906101000a900473ffffffffffffffffffffffffffffffffffffffff1673ffffffffffffffffffffffffffffffffffffffff16610d17909392919063ffffffff16565b61084a8282610e39565b5050565b6108588282610f3d565b6108a58282600460009054906101000a900473ffffffffffffffffffffffffffffffffffffffff1673ffffffffffffffffffffffffffffffffffffffff166110229092919063ffffffff16565b7fb968745fb52db01651388c45b9c808b649af161403513ab512197f238f99e4948282604051808373ffffffffffffffffffffffffffffffffffffffff1673ffffffffffffffffffffffffffffffffffffffff1681526020018281526020019250505060405180910390a15050565b60006109228686868661110f565b905061092e8183610ba2565b73ffffffffffffffffffffffffffffffffffffffff168673ffffffffffffffffffffffffffffffffffffffff16146109ce576040517f08c379a00000000000000000000000000000000000000000000000000000000081526004018080602001828103825260198152602001807f496e76616c6964205061796d656e74205369676e61747572650000000000000081525060200191505060405180910390fd5b6109d88187610bf5565b505050505050565b6109ea8382610f3d565b610a378282600460009054906101000a900473ffffffffffffffffffffffffffffffffffffffff1673ffffffffffffffffffffffffffffffffffffffff166110229092919063ffffffff16565b505050565b6000610a498585856111c8565b9050610a558183610ba2565b73ffffffffffffffffffffffffffffffffffffffff168573ffffffffffffffffffffffffffffffffffffffff1614610af5576040517f08c379a000000000000000000000000000000000000000000000000000000000815260040180806020018281038252601f8152602001807f496e76616c69642052656c65617365546f6b656e73205369676e61747572650081525060200191505060405180910390fd5b610aff8186610bf5565b5050505050565b6000600154610b4460405180606001604052808773ffffffffffffffffffffffffffffffffffffffff16815260200186815260200185815250611264565b60405160200180807f1901000000000000000000000000000000000000000000000000000000000000815250600201838152602001828152602001925050506040516020818303038152906040528051906020012090509392505050565b600080610baf84846112fc565b9050600073ffffffffffffffffffffffffffffffffffffffff168173ffffffffffffffffffffffffffffffffffffffff161415610beb57600080fd5b8091505092915050565b60008282604051602001808381526020018273ffffffffffffffffffffffffffffffffffffffff1673ffffffffffffffffffffffffffffffffffffffff1681526020019250505060405160208183030381529060405280519060200120905060008082815260200190815260200160002060009054906101000a900460ff1615610ce7576040517f08c379a00000000000000000000000000000000000000000000000000000000081526004018080602001828103825260148152602001807f5369676e6174757265206e6f7420756e6971756500000000000000000000000081525060200191505060405180910390fd5b600160008083815260200190815260200160002060006101000a81548160ff021916908315150217905550505050565b610e33848573ffffffffffffffffffffffffffffffffffffffff166323b872dd90507c010000000000000000000000000000000000000000000000000000000002858585604051602401808473ffffffffffffffffffffffffffffffffffffffff1673ffffffffffffffffffffffffffffffffffffffff1681526020018373ffffffffffffffffffffffffffffffffffffffff1673ffffffffffffffffffffffffffffffffffffffff1681526020018281526020019350505050604051602081830303815290604052907bffffffffffffffffffffffffffffffffffffffffffffffffffffffff19166020820180517bffffffffffffffffffffffffffffffffffffffffffffffffffffffff8381831617835250505050611401565b50505050565b610e8b81600360008573ffffffffffffffffffffffffffffffffffffffff1673ffffffffffffffffffffffffffffffffffffffff1681526020019081526020016000205461152e90919063ffffffff16565b600360008473ffffffffffffffffffffffffffffffffffffffff1673ffffffffffffffffffffffffffffffffffffffff168152602001908152602001600020819055507f8e78329e3d20b4aeba22ca5ba98e8e27309fc5cbad16b93640982a444202bd0d8282604051808373ffffffffffffffffffffffffffffffffffffffff1673ffffffffffffffffffffffffffffffffffffffff1681526020018281526020019250505060405180910390a15050565b80600360008473ffffffffffffffffffffffffffffffffffffffff1673ffffffffffffffffffffffffffffffffffffffff168152602001908152602001600020541015610f8957600080fd5b610fdb81600360008573ffffffffffffffffffffffffffffffffffffffff1673ffffffffffffffffffffffffffffffffffffffff1681526020019081526020016000205461154d90919063ffffffff16565b600360008473ffffffffffffffffffffffffffffffffffffffff1673ffffffffffffffffffffffffffffffffffffffff168152602001908152602001600020819055505050565b61110a838473ffffffffffffffffffffffffffffffffffffffff1663a9059cbb90507c0100000000000000000000000000000000000000000000000000000000028484604051602401808373ffffffffffffffffffffffffffffffffffffffff1673ffffffffffffffffffffffffffffffffffffffff16815260200182815260200192505050604051602081830303815290604052907bffffffffffffffffffffffffffffffffffffffffffffffffffffffff19166020820180517bffffffffffffffffffffffffffffffffffffffffffffffffffffffff8381831617835250505050611401565b505050565b600060015461116960405180608001604052808873ffffffffffffffffffffffffffffffffffffffff1681526020018773ffffffffffffffffffffffffffffffffffffffff1681526020018681526020018581525061156d565b60405160200180807f190100000000000000000000000000000000000000000000000000000000000081525060020183815260200182815260200192505050604051602081830303815290604052805190602001209050949350505050565b600060015461120660405180606001604052808773ffffffffffffffffffffffffffffffffffffffff1681526020018681526020018581525061163d565b60405160200180807f1901000000000000000000000000000000000000000000000000000000000000815250600201838152602001828152602001925050506040516020818303038152906040528051906020012090509392505050565b600060405180806116e9603c9139603c0190506040518091039020826000015183602001518460400151604051602001808581526020018473ffffffffffffffffffffffffffffffffffffffff1673ffffffffffffffffffffffffffffffffffffffff168152602001838152602001828152602001945050505050604051602081830303815290604052805190602001209050919050565b6000604182511461131057600090506113fb565b60008060006020850151925060408501519150606085015160001a90507f7fffffffffffffffffffffffffffffff5d576e7357a4501ddfe92f46681b20a08260019004111561136557600093505050506113fb565b601b8160ff161415801561137d5750601c8160ff1614155b1561138e57600093505050506113fb565b60018682858560405160008152602001604052604051808581526020018460ff1660ff1681526020018381526020018281526020019450505050506020604051602081039080840390855afa1580156113eb573d6000803e3d6000fd5b5050506020604051035193505050505b92915050565b6114208273ffffffffffffffffffffffffffffffffffffffff166116d5565b61142957600080fd5b600060608373ffffffffffffffffffffffffffffffffffffffff16836040518082805190602001908083835b602083106114785780518252602082019150602081019050602083039250611455565b6001836020036101000a0380198251168184511680821785525050505050509050019150506000604051808303816000865af19150503d80600081146114da576040519150601f19603f3d011682016040523d82523d6000602084013e6114df565b606091505b5091509150816114ee57600080fd5b6000815111156115285780806020019051602081101561150d57600080fd5b810190808051906020019092919050505061152757600080fd5b5b50505050565b60008082840190508381101561154357600080fd5b8091505092915050565b60008282111561155c57600080fd5b600082840390508091505092915050565b6000604051808061176260479139604701905060405180910390208260000151836020015184604001518560600151604051602001808681526020018573ffffffffffffffffffffffffffffffffffffffff1673ffffffffffffffffffffffffffffffffffffffff1681526020018473ffffffffffffffffffffffffffffffffffffffff1673ffffffffffffffffffffffffffffffffffffffff16815260200183815260200182815260200195505050505050604051602081830303815290604052805190602001209050919050565b60006040518080611725603d9139603d0190506040518091039020826000015183602001518460400151604051602001808581526020018473ffffffffffffffffffffffffffffffffffffffff1673ffffffffffffffffffffffffffffffffffffffff168152602001838152602001828152602001945050505050604051602081830303815290604052805190602001209050919050565b600080823b90506000811191505091905056fe4c6f636b7570546f6b656e73466f7228616464726573732073656e6465722c75696e7432353620616d6f756e742c62797465733332206e6f6e63652952656c65617365546f6b656e73466f7228616464726573732073656e6465722c75696e7432353620616d6f756e742c62797465733332206e6f6e636529506179546f6b656e7328616464726573732073656e6465722c616464726573732072656365697665722c75696e7432353620616d6f756e742c62797465733332206e6f6e636529a165627a7a7230582028ac585114bd2cd0e85339c5344987ac1a6e36bddbe1dd38820ec3120658c8220029454950373132446f6d61696e28737472696e67206e616d652c737472696e672076657273696f6e2c75696e7432353620636861696e49642c6164647265737320766572696679696e67436f6e747261637429",
  "source": "pragma solidity 0.5.7;\n\nimport \"openzeppelin-solidity/contracts/token/ERC20/SafeERC20.sol\";\nimport \"openzeppelin-solidity/contracts/token/ERC20/ERC20.sol\";\nimport \"openzeppelin-solidity/contracts/math/SafeMath.sol\";\nimport \"./SigningLogic.sol\";\n\n/**\n * @notice TokenEscrowMarketplace is an ERC20 payment channel that enables users to send BLT by exchanging signatures off-chain\n *  Users approve the contract address to transfer BLT on their behalf using the standard ERC20.approve function\n *  After approval, either the user or the contract admin initiates the transfer of BLT into the contract\n *  Once in the contract, users can send payments via a signed message to another user. \n *  The signature transfers BLT from lockup to the recipient's balance\n *  Users can withdraw funds at any time. Or the admin can release them on the user's behalf\n *  \n *  BLT is stored in the contract by address\n *  \n *  Only the AttestationLogic contract is authorized to release funds once a jobs is complete\n */\ncontract TokenEscrowMarketplace is SigningLogic {\n  using SafeERC20 for ERC20;\n  using SafeMath for uint256;\n\n  address public attestationLogic;\n\n  mapping(address => uint256) public tokenEscrow;\n  ERC20 public token;\n\n  event TokenMarketplaceWithdrawal(address escrowPayer, uint256 amount);\n  event TokenMarketplaceEscrowPayment(address escrowPayer, address escrowPayee, uint256 amount);\n  event TokenMarketplaceDeposit(address escrowPayer, uint256 amount);\n\n  /**\n   * @notice The TokenEscrowMarketplace constructor initializes the interfaces to the other contracts\n   * @dev Some actions are restricted to be performed by the attestationLogic contract.\n   *  Signing logic is upgradeable in case the signTypedData spec changes\n   * @param _token Address of BLT\n   * @param _attestationLogic Address of current attestation logic contract\n   */\n  constructor(\n    ERC20 _token,\n    address _attestationLogic\n    ) public SigningLogic(\"Bloom Token Escrow Marketplace\", \"2\", 1) {\n    token = _token;\n    attestationLogic = _attestationLogic;\n  }\n\n  modifier onlyAttestationLogic() {\n    require(msg.sender == attestationLogic);\n    _;\n  }\n\n  /**\n   * @notice Lockup tokens for set time period on behalf of user. Must be preceeded by approve\n   * @dev Authorized by a signTypedData signature by sender\n   *  Sigs can only be used once. They contain a unique nonce\n   *  So an action can be repeated, with a different signature\n   * @param _sender User locking up their tokens\n   * @param _amount Tokens to lock up\n   * @param _nonce Unique Id so signatures can't be replayed\n   * @param _delegationSig Signed hash of these input parameters so an admin can submit this on behalf of a user\n   */\n  function moveTokensToEscrowLockupFor(\n    address _sender,\n    uint256 _amount,\n    bytes32 _nonce,\n    bytes calldata _delegationSig\n    ) external {\n      validateLockupTokensSig(\n        _sender,\n        _amount,\n        _nonce,\n        _delegationSig\n      );\n      moveTokensToEscrowLockupForUser(_sender, _amount);\n  }\n\n  /**\n   * @notice Verify lockup signature is valid\n   * @param _sender User locking up their tokens\n   * @param _amount Tokens to lock up\n   * @param _nonce Unique Id so signatures can't be replayed\n   * @param _delegationSig Signed hash of these input parameters so an admin can submit this on behalf of a user\n   */\n  function validateLockupTokensSig(\n    address _sender,\n    uint256 _amount,\n    bytes32 _nonce,\n    bytes memory _delegationSig\n  ) private {\n    bytes32 _signatureDigest = generateLockupTokensDelegationSchemaHash(_sender, _amount, _nonce);\n    require(_sender == recoverSigner(_signatureDigest, _delegationSig), 'Invalid LockupTokens Signature');\n    burnSignatureDigest(_signatureDigest, _sender);\n  }\n\n  /**\n   * @notice Lockup tokens by user. Must be preceeded by approve\n   * @param _amount Tokens to lock up\n   */\n  function moveTokensToEscrowLockup(uint256 _amount) external {\n    moveTokensToEscrowLockupForUser(msg.sender, _amount);\n  }\n\n  /**\n   * @notice Lockup tokens for set time. Must be preceeded by approve\n   * @dev Private function called by appropriate public function\n   * @param _sender User locking up their tokens\n   * @param _amount Tokens to lock up\n   */\n  function moveTokensToEscrowLockupForUser(\n    address _sender,\n    uint256 _amount\n    ) private {\n    token.safeTransferFrom(_sender, address(this), _amount);\n    addToEscrow(_sender, _amount);\n  }\n\n  /**\n   * @notice Withdraw tokens from escrow back to requester\n   * @dev Authorized by a signTypedData signature by sender\n   *  Sigs can only be used once. They contain a unique nonce\n   *  So an action can be repeated, with a different signature\n   * @param _sender User withdrawing their tokens\n   * @param _amount Tokens to withdraw\n   * @param _nonce Unique Id so signatures can't be replayed\n   * @param _delegationSig Signed hash of these input parameters so an admin can submit this on behalf of a user\n   */\n  function releaseTokensFromEscrowFor(\n    address _sender,\n    uint256 _amount,\n    bytes32 _nonce,\n    bytes calldata _delegationSig\n    ) external {\n      validateReleaseTokensSig(\n        _sender,\n        _amount,\n        _nonce,\n        _delegationSig\n      );\n      releaseTokensFromEscrowForUser(_sender, _amount);\n  }\n\n  /**\n   * @notice Verify lockup signature is valid\n   * @param _sender User withdrawing their tokens\n   * @param _amount Tokens to lock up\n   * @param _nonce Unique Id so signatures can't be replayed\n   * @param _delegationSig Signed hash of these input parameters so an admin can submit this on behalf of a user\n   */\n  function validateReleaseTokensSig(\n    address _sender,\n    uint256 _amount,\n    bytes32 _nonce,\n    bytes memory _delegationSig\n\n  ) private {\n    bytes32 _signatureDigest = generateReleaseTokensDelegationSchemaHash(_sender, _amount, _nonce);\n    require(_sender == recoverSigner(_signatureDigest, _delegationSig), 'Invalid ReleaseTokens Signature');\n    burnSignatureDigest(_signatureDigest, _sender);\n  }\n\n  /**\n   * @notice Release tokens back to payer's available balance if lockup expires\n   * @dev Token balance retreived by accountId. Can be different address from the one that deposited tokens\n   * @param _amount Tokens to retreive from escrow\n   */\n  function releaseTokensFromEscrow(uint256 _amount) external {\n    releaseTokensFromEscrowForUser(msg.sender, _amount);\n  }\n\n  /**\n   * @notice Release tokens back to payer's available balance\n   * @param _payer User retreiving tokens from escrow\n   * @param _amount Tokens to retreive from escrow\n   */\n  function releaseTokensFromEscrowForUser(\n    address _payer,\n    uint256 _amount\n    ) private {\n      subFromEscrow(_payer, _amount);\n      token.safeTransfer(_payer, _amount);\n      emit TokenMarketplaceWithdrawal(_payer, _amount);\n  }\n\n  /**\n   * @notice Pay from escrow of payer to available balance of receiever\n   * @dev Private function to modify balances on payment\n   * @param _payer User with tokens in escrow\n   * @param _receiver User receiving tokens\n   * @param _amount Tokens being sent\n   */\n  function payTokensFromEscrow(address _payer, address _receiver, uint256 _amount) private {\n    subFromEscrow(_payer, _amount);\n    token.safeTransfer(_receiver, _amount);\n  }\n\n  /**\n   * @notice Pay tokens to receiver from payer's escrow given a valid signature\n   * @dev Execution restricted to attestationLogic contract\n   * @param _payer User paying tokens from escrow\n   * @param _receiver User receiving payment\n   * @param _amount Tokens being paid\n   * @param _nonce Unique Id for sig to make it one-time-use\n   * @param _paymentSig Signed parameters by payer authorizing payment\n   */\n  function requestTokenPayment(\n    address _payer,\n    address _receiver,\n    uint256 _amount,\n    bytes32 _nonce,\n    bytes calldata _paymentSig\n    ) external onlyAttestationLogic {\n\n    validatePaymentSig(\n      _payer,\n      _receiver,\n      _amount,\n      _nonce,\n      _paymentSig\n    );\n    payTokensFromEscrow(_payer, _receiver, _amount);\n    emit TokenMarketplaceEscrowPayment(_payer, _receiver, _amount);\n  }\n\n  /**\n   * @notice Verify payment signature is valid\n   * @param _payer User paying tokens from escrow\n   * @param _receiver User receiving payment\n   * @param _amount Tokens being paid\n   * @param _nonce Unique Id for sig to make it one-time-use\n   * @param _paymentSig Signed parameters by payer authorizing payment\n   */\n  function validatePaymentSig(\n    address _payer,\n    address _receiver,\n    uint256 _amount,\n    bytes32 _nonce,\n    bytes memory _paymentSig\n\n  ) private {\n    bytes32 _signatureDigest = generatePayTokensSchemaHash(_payer, _receiver, _amount, _nonce);\n    require(_payer == recoverSigner(_signatureDigest, _paymentSig), 'Invalid Payment Signature');\n    burnSignatureDigest(_signatureDigest, _payer);\n  }\n\n  /**\n   * @notice Helper function to add to escrow balance \n   * @param _from Account address for escrow mapping\n   * @param _amount Tokens to lock up\n   */\n  function addToEscrow(address _from, uint256 _amount) private {\n    tokenEscrow[_from] = tokenEscrow[_from].add(_amount);\n    emit TokenMarketplaceDeposit(_from, _amount);\n  }\n\n  /**\n   * Helper function to reduce escrow token balance of user\n   */\n  function subFromEscrow(address _from, uint256 _amount) private {\n    require(tokenEscrow[_from] >= _amount);\n    tokenEscrow[_from] = tokenEscrow[_from].sub(_amount);\n  }\n}\n",
  "sourcePath": "/Users/pierrick/Documents/04-OSS/08-Graph/01-Bloom/graph/contracts/TokenEscrowMarketplace.sol",
  "compiler": {
    "name": "solc",
    "version": "0.5.7+commit.6da8b019.Emscripten.clang"
  },
  "schemaVersion": "3.0.9",
  "updatedAt": "2019-05-21T20:40:56.725Z",
  "devdoc": {
    "methods": {
      "constructor": {
        "details": "Some actions are restricted to be performed by the attestationLogic contract. Signing logic is upgradeable in case the signTypedData spec changes",
        "params": {
          "_attestationLogic": "Address of current attestation logic contract",
          "_token": "Address of BLT"
        }
      },
      "moveTokensToEscrowLockup(uint256)": {
        "params": {
          "_amount": "Tokens to lock up"
        }
      },
      "moveTokensToEscrowLockupFor(address,uint256,bytes32,bytes)": {
        "details": "Authorized by a signTypedData signature by sender Sigs can only be used once. They contain a unique nonce So an action can be repeated, with a different signature",
        "params": {
          "_amount": "Tokens to lock up",
          "_delegationSig": "Signed hash of these input parameters so an admin can submit this on behalf of a user",
          "_nonce": "Unique Id so signatures can't be replayed",
          "_sender": "User locking up their tokens"
        }
      },
      "releaseTokensFromEscrow(uint256)": {
        "details": "Token balance retreived by accountId. Can be different address from the one that deposited tokens",
        "params": {
          "_amount": "Tokens to retreive from escrow"
        }
      },
      "releaseTokensFromEscrowFor(address,uint256,bytes32,bytes)": {
        "details": "Authorized by a signTypedData signature by sender Sigs can only be used once. They contain a unique nonce So an action can be repeated, with a different signature",
        "params": {
          "_amount": "Tokens to withdraw",
          "_delegationSig": "Signed hash of these input parameters so an admin can submit this on behalf of a user",
          "_nonce": "Unique Id so signatures can't be replayed",
          "_sender": "User withdrawing their tokens"
        }
      },
      "requestTokenPayment(address,address,uint256,bytes32,bytes)": {
        "details": "Execution restricted to attestationLogic contract",
        "params": {
          "_amount": "Tokens being paid",
          "_nonce": "Unique Id for sig to make it one-time-use",
          "_payer": "User paying tokens from escrow",
          "_paymentSig": "Signed parameters by payer authorizing payment",
          "_receiver": "User receiving payment"
        }
      }
    }
  },
  "userdoc": {
    "methods": {
      "constructor": "The TokenEscrowMarketplace constructor initializes the interfaces to the other contracts",
      "moveTokensToEscrowLockup(uint256)": {
        "notice": "Lockup tokens by user. Must be preceeded by approve"
      },
      "moveTokensToEscrowLockupFor(address,uint256,bytes32,bytes)": {
        "notice": "Lockup tokens for set time period on behalf of user. Must be preceeded by approve"
      },
      "releaseTokensFromEscrow(uint256)": {
        "notice": "Release tokens back to payer's available balance if lockup expires"
      },
      "releaseTokensFromEscrowFor(address,uint256,bytes32,bytes)": {
        "notice": "Withdraw tokens from escrow back to requester"
      },
      "requestTokenPayment(address,address,uint256,bytes32,bytes)": {
        "notice": "Pay tokens to receiver from payer's escrow given a valid signature"
      }
    },
    "notice": "TokenEscrowMarketplace is an ERC20 payment channel that enables users to send BLT by exchanging signatures off-chain Users approve the contract address to transfer BLT on their behalf using the standard ERC20.approve function After approval, either the user or the contract admin initiates the transfer of BLT into the contract Once in the contract, users can send payments via a signed message to another user.  The signature transfers BLT from lockup to the recipient's balance Users can withdraw funds at any time. Or the admin can release them on the user's behalf  BLT is stored in the contract by address  Only the AttestationLogic contract is authorized to release funds once a jobs is complete"
  }
}